{
  "address": "0x5738379364Fab26c7e044c02deD4ceef93333D84",
  "abi": [
    {
      "inputs": [
        {
          "internalType": "string",
          "name": "_name",
          "type": "string"
        },
        {
          "internalType": "string",
          "name": "_symbol",
          "type": "string"
        },
        {
          "internalType": "string",
          "name": "_newBaseURI",
          "type": "string"
        },
        {
          "internalType": "string",
          "name": "_newURISuffix",
          "type": "string"
        },
        {
          "internalType": "uint16",
          "name": "_width",
          "type": "uint16"
        },
        {
          "internalType": "uint16",
          "name": "_height",
          "type": "uint16"
        },
        {
          "internalType": "address",
          "name": "_owner",
          "type": "address"
        }
      ],
      "stateMutability": "nonpayable",
      "type": "constructor"
    },
    {
      "anonymous": false,
      "inputs": [
        {
          "indexed": true,
          "internalType": "address",
          "name": "owner",
          "type": "address"
        },
        {
          "indexed": true,
          "internalType": "address",
          "name": "spender",
          "type": "address"
        },
        {
          "indexed": true,
          "internalType": "uint256",
          "name": "id",
          "type": "uint256"
        }
      ],
      "name": "Approval",
      "type": "event"
    },
    {
      "anonymous": false,
      "inputs": [
        {
          "indexed": true,
          "internalType": "address",
          "name": "owner",
          "type": "address"
        },
        {
          "indexed": true,
          "internalType": "address",
          "name": "operator",
          "type": "address"
        },
        {
          "indexed": false,
          "internalType": "bool",
          "name": "approved",
          "type": "bool"
        }
      ],
      "name": "ApprovalForAll",
      "type": "event"
    },
    {
      "anonymous": false,
      "inputs": [
        {
          "indexed": false,
          "internalType": "string",
          "name": "newBaseURI",
          "type": "string"
        }
      ],
      "name": "BaseURIUpdated",
      "type": "event"
    },
    {
      "anonymous": false,
      "inputs": [
        {
          "indexed": true,
          "internalType": "address",
          "name": "previousOwner",
          "type": "address"
        },
        {
          "indexed": true,
          "internalType": "address",
          "name": "newOwner",
          "type": "address"
        }
      ],
      "name": "OwnershipTransferred",
      "type": "event"
    },
    {
      "anonymous": false,
      "inputs": [
        {
          "indexed": true,
          "internalType": "address",
          "name": "from",
          "type": "address"
        },
        {
          "indexed": true,
          "internalType": "address",
          "name": "to",
          "type": "address"
        },
        {
          "indexed": true,
          "internalType": "uint256",
          "name": "id",
          "type": "uint256"
        }
      ],
      "name": "Transfer",
      "type": "event"
    },
    {
      "anonymous": false,
      "inputs": [
        {
          "indexed": false,
          "internalType": "string",
          "name": "newURISuffix",
          "type": "string"
        }
      ],
      "name": "URISuffixUpdated",
      "type": "event"
    },
    {
      "inputs": [],
      "name": "MINT_TYPEHASH",
      "outputs": [
        {
          "internalType": "bytes32",
          "name": "",
          "type": "bytes32"
        }
      ],
      "stateMutability": "view",
      "type": "function"
    },
    {
      "inputs": [],
      "name": "URISuffix",
      "outputs": [
        {
          "internalType": "string",
          "name": "",
          "type": "string"
        }
      ],
      "stateMutability": "view",
      "type": "function"
    },
    {
      "inputs": [
        {
          "internalType": "address",
          "name": "spender",
          "type": "address"
        },
        {
          "internalType": "uint256",
          "name": "id",
          "type": "uint256"
        }
      ],
      "name": "approve",
      "outputs": [],
      "stateMutability": "nonpayable",
      "type": "function"
    },
    {
      "inputs": [
        {
          "internalType": "address",
          "name": "",
          "type": "address"
        }
      ],
      "name": "balanceOf",
      "outputs": [
        {
          "internalType": "uint256",
          "name": "",
          "type": "uint256"
        }
      ],
      "stateMutability": "view",
      "type": "function"
    },
    {
      "inputs": [],
      "name": "baseURI",
      "outputs": [
        {
          "internalType": "string",
          "name": "",
          "type": "string"
        }
      ],
      "stateMutability": "view",
      "type": "function"
    },
    {
      "inputs": [
        {
          "internalType": "uint16",
          "name": "x",
          "type": "uint16"
        },
        {
          "internalType": "uint16",
          "name": "y",
          "type": "uint16"
        }
      ],
      "name": "coordsToId",
      "outputs": [
        {
          "internalType": "uint256",
          "name": "",
          "type": "uint256"
        }
      ],
      "stateMutability": "pure",
      "type": "function"
    },
    {
      "inputs": [
        {
          "internalType": "uint256",
          "name": "",
          "type": "uint256"
        }
      ],
      "name": "getApproved",
      "outputs": [
        {
          "internalType": "address",
          "name": "",
          "type": "address"
        }
      ],
      "stateMutability": "view",
      "type": "function"
    },
    {
      "inputs": [],
      "name": "height",
      "outputs": [
        {
          "internalType": "uint16",
          "name": "",
          "type": "uint16"
        }
      ],
      "stateMutability": "view",
      "type": "function"
    },
    {
      "inputs": [
        {
          "internalType": "uint256",
          "name": "id",
          "type": "uint256"
        }
      ],
      "name": "idToCoords",
      "outputs": [
        {
          "internalType": "uint16",
          "name": "x",
          "type": "uint16"
        },
        {
          "internalType": "uint16",
          "name": "y",
          "type": "uint16"
        }
      ],
      "stateMutability": "pure",
      "type": "function"
    },
    {
      "inputs": [
        {
          "internalType": "uint256",
          "name": "_tokenId",
          "type": "uint256"
        }
      ],
      "name": "inBoundaries",
      "outputs": [
        {
          "internalType": "bool",
          "name": "",
          "type": "bool"
        }
      ],
      "stateMutability": "view",
      "type": "function"
    },
    {
      "inputs": [
        {
          "internalType": "address",
          "name": "",
          "type": "address"
        },
        {
          "internalType": "address",
          "name": "",
          "type": "address"
        }
      ],
      "name": "isApprovedForAll",
      "outputs": [
        {
          "internalType": "bool",
          "name": "",
          "type": "bool"
        }
      ],
      "stateMutability": "view",
      "type": "function"
    },
    {
      "inputs": [],
      "name": "name",
      "outputs": [
        {
          "internalType": "string",
          "name": "",
          "type": "string"
        }
      ],
      "stateMutability": "view",
      "type": "function"
    },
    {
      "inputs": [],
      "name": "owner",
      "outputs": [
        {
          "internalType": "address",
          "name": "",
          "type": "address"
        }
      ],
      "stateMutability": "view",
      "type": "function"
    },
    {
      "inputs": [
        {
          "internalType": "uint256",
          "name": "",
          "type": "uint256"
        }
      ],
      "name": "ownerOf",
      "outputs": [
        {
          "internalType": "address",
          "name": "",
          "type": "address"
        }
      ],
      "stateMutability": "view",
      "type": "function"
    },
    {
      "inputs": [
        {
          "internalType": "address",
          "name": "addr",
          "type": "address"
        },
        {
          "internalType": "uint256",
          "name": "_tokenId",
          "type": "uint256"
        },
        {
          "internalType": "bytes",
          "name": "_sig",
          "type": "bytes"
        }
      ],
      "name": "recover",
      "outputs": [
        {
          "internalType": "address",
          "name": "",
          "type": "address"
        }
      ],
      "stateMutability": "view",
      "type": "function"
    },
    {
      "inputs": [
        {
          "internalType": "uint256",
          "name": "_tokenId",
          "type": "uint256"
        },
        {
          "internalType": "bytes",
          "name": "_sig",
          "type": "bytes"
        }
      ],
      "name": "redeem",
      "outputs": [],
      "stateMutability": "nonpayable",
      "type": "function"
    },
    {
      "inputs": [
        {
          "internalType": "address",
          "name": "_to",
          "type": "address"
        },
        {
          "internalType": "uint256",
          "name": "_tokenId",
          "type": "uint256"
        }
      ],
      "name": "redeemFor",
      "outputs": [],
      "stateMutability": "nonpayable",
      "type": "function"
    },
    {
      "inputs": [],
      "name": "renounceOwnership",
      "outputs": [],
      "stateMutability": "nonpayable",
      "type": "function"
    },
    {
      "inputs": [
        {
          "internalType": "address",
          "name": "from",
          "type": "address"
        },
        {
          "internalType": "address",
          "name": "to",
          "type": "address"
        },
        {
          "internalType": "uint256",
          "name": "id",
          "type": "uint256"
        }
      ],
      "name": "safeTransferFrom",
      "outputs": [],
      "stateMutability": "nonpayable",
      "type": "function"
    },
    {
      "inputs": [
        {
          "internalType": "address",
          "name": "from",
          "type": "address"
        },
        {
          "internalType": "address",
          "name": "to",
          "type": "address"
        },
        {
          "internalType": "uint256",
          "name": "id",
          "type": "uint256"
        },
        {
          "internalType": "bytes",
          "name": "data",
          "type": "bytes"
        }
      ],
      "name": "safeTransferFrom",
      "outputs": [],
      "stateMutability": "nonpayable",
      "type": "function"
    },
    {
      "inputs": [
        {
          "internalType": "address",
          "name": "operator",
          "type": "address"
        },
        {
          "internalType": "bool",
          "name": "approved",
          "type": "bool"
        }
      ],
      "name": "setApprovalForAll",
      "outputs": [],
      "stateMutability": "nonpayable",
      "type": "function"
    },
    {
      "inputs": [
        {
          "internalType": "string",
          "name": "_newBaseURI",
          "type": "string"
        }
      ],
      "name": "setBaseURI",
      "outputs": [],
      "stateMutability": "nonpayable",
      "type": "function"
    },
    {
      "inputs": [
        {
          "internalType": "string",
          "name": "_newURISuffix",
          "type": "string"
        }
      ],
      "name": "setURISuffix",
      "outputs": [],
      "stateMutability": "nonpayable",
      "type": "function"
    },
    {
      "inputs": [
        {
          "internalType": "bytes4",
          "name": "interfaceId",
          "type": "bytes4"
        }
      ],
      "name": "supportsInterface",
      "outputs": [
        {
          "internalType": "bool",
          "name": "",
          "type": "bool"
        }
      ],
      "stateMutability": "pure",
      "type": "function"
    },
    {
      "inputs": [],
      "name": "symbol",
      "outputs": [
        {
          "internalType": "string",
          "name": "",
          "type": "string"
        }
      ],
      "stateMutability": "view",
      "type": "function"
    },
    {
      "inputs": [
        {
          "internalType": "uint256",
          "name": "tokenId",
          "type": "uint256"
        }
      ],
      "name": "tokenData",
      "outputs": [
        {
          "components": [
            {
              "internalType": "uint256",
              "name": "id",
              "type": "uint256"
            },
            {
              "internalType": "address",
              "name": "owner",
              "type": "address"
            },
            {
              "internalType": "string",
              "name": "uri",
              "type": "string"
            }
          ],
          "internalType": "struct SubvisualUniverseNFT.Data",
          "name": "",
          "type": "tuple"
        }
      ],
      "stateMutability": "view",
      "type": "function"
    },
    {
      "inputs": [
        {
          "internalType": "uint256",
          "name": "tokenId",
          "type": "uint256"
        }
      ],
      "name": "tokenURI",
      "outputs": [
        {
          "internalType": "string",
          "name": "",
          "type": "string"
        }
      ],
      "stateMutability": "view",
      "type": "function"
    },
    {
      "inputs": [
        {
          "internalType": "address",
          "name": "from",
          "type": "address"
        },
        {
          "internalType": "address",
          "name": "to",
          "type": "address"
        },
        {
          "internalType": "uint256",
          "name": "id",
          "type": "uint256"
        }
      ],
      "name": "transferFrom",
      "outputs": [],
      "stateMutability": "nonpayable",
      "type": "function"
    },
    {
      "inputs": [
        {
          "internalType": "address",
          "name": "newOwner",
          "type": "address"
        }
      ],
      "name": "transferOwnership",
      "outputs": [],
      "stateMutability": "nonpayable",
      "type": "function"
    },
    {
      "inputs": [],
      "name": "width",
      "outputs": [
        {
          "internalType": "uint16",
          "name": "",
          "type": "uint16"
        }
      ],
      "stateMutability": "view",
      "type": "function"
    }
  ],
  "transactionHash": "0x54341a36258bb6fa172f554976eb27b871b9577d5c25b81a60fa12d0722117e6",
  "args": [
    "Subvisual Universe NFT",
    "SV-UNI",
    "https://holidays.subvisual.com/minted/",
    ".png",
    255,
    255,
    "0xed11010139D5Ea6718086e55c9952332fc192311"
  ],
  "numDeployments": 1,
  "solcInputHash": "d0d89470465c562b2267e84d7cb93f19",
  "bytecode": "0x6101406040523480156200001257600080fd5b506040516200250b3803806200250b83398101604081905262000035916200040c565b86604051806040016040528060058152602001640312e302e360dc1b815250888881600090805190602001906200006e9291906200025c565b508051620000849060019060208401906200025c565b505050620000a16200009b6200020660201b60201c565b6200020a565b815160209283012081519183019190912060e08290526101008190524660a0818152604080517f8b73c3c69bb8fe3d512ecc4cf759cc79239f7b179b0ffacaa9a75d522b39400f818801819052818301969096526060810194909452608080850193909352308483018190528151808603909301835260c094850190915281519190950120905291909152610120526200013b816200020a565b8451620001509060079060208801906200025c565b508351620001669060089060208701906200025c565b506009805461ffff848116620100000263ffffffff19909216908616171790556040517f6741b2fc379fad678116fe3d4d4b9a1a184ab53ba36b86ad0fa66340b1ab41ad90620001b8908790620004fd565b60405180910390a17f80ee62268f37acfc25ec039b3bdc164eb560c675d21e677b7452e1f34a56897a84604051620001f19190620004fd565b60405180910390a1505050505050506200056f565b3390565b600680546001600160a01b038381166001600160a01b0319831681179093556040519116919082907f8be0079c531659141344cd1fd0a4f28419497f9722a3daafe3b4186f6b6457e090600090a35050565b8280546200026a9062000532565b90600052602060002090601f0160209004810192826200028e5760008555620002d9565b82601f10620002a957805160ff1916838001178555620002d9565b82800160010185558215620002d9579182015b82811115620002d9578251825591602001919060010190620002bc565b50620002e7929150620002eb565b5090565b5b80821115620002e75760008155600101620002ec565b634e487b7160e01b600052604160045260246000fd5b60005b83811015620003355781810151838201526020016200031b565b8381111562000345576000848401525b50505050565b600082601f8301126200035d57600080fd5b81516001600160401b03808211156200037a576200037a62000302565b604051601f8301601f19908116603f01168101908282118183101715620003a557620003a562000302565b81604052838152866020858801011115620003bf57600080fd5b620003d284602083016020890162000318565b9695505050505050565b805161ffff81168114620003ef57600080fd5b919050565b80516001600160a01b0381168114620003ef57600080fd5b600080600080600080600060e0888a0312156200042857600080fd5b87516001600160401b03808211156200044057600080fd5b6200044e8b838c016200034b565b985060208a01519150808211156200046557600080fd5b620004738b838c016200034b565b975060408a01519150808211156200048a57600080fd5b620004988b838c016200034b565b965060608a0151915080821115620004af57600080fd5b50620004be8a828b016200034b565b945050620004cf60808901620003dc565b9250620004df60a08901620003dc565b9150620004ef60c08901620003f4565b905092959891949750929550565b60208152600082518060208401526200051e81604085016020870162000318565b601f01601f19169190910160400192915050565b600181811c908216806200054757607f821691505b602082108114156200056957634e487b7160e01b600052602260045260246000fd5b50919050565b60805160a05160c05160e0516101005161012051611f4c620005bf600039600061150e0152600061155d0152600061153801526000611491015260006114bb015260006114e50152611f4c6000f3fe608060405234801561001057600080fd5b506004361061016a5760003560e01c806301dacdbe1461016f57806301ffc9a7146101ad57806306fdde03146101d0578063081812fc146101e5578063095ea7b3146102265780630ef267431461023b578063101b0fbc1461026257806323b872dd1461026a57806342842e0e1461027d57806355f804b3146102905780636352211e146102a35780636c0360eb146102cc57806370a08231146102d4578063715018a6146103025780637a82a1981461030a57806381b3e5751461031d5780638da5cb5b146103305780638f6b33111461033857806395d89b411461034b5780639ededf7714610353578063a22cb46514610361578063b4b5b48f14610374578063b88d4fde14610394578063c18b9e00146103a7578063c87b56dd146103ba578063e77c646d146103cd578063e985e9c5146103e0578063ed5dbebf1461040e578063f2fde38b14610421578063f76fc35e14610434575b600080fd5b61018d61017d366004611780565b601081901c916201ffff90911690565b6040805161ffff9384168152929091166020830152015b60405180910390f35b6101c06101bb3660046117af565b61045b565b60405190151581526020016101a4565b6101d86104ad565b6040516101a49190611824565b61020e6101f3366004611780565b6004602052600090815260409020546001600160a01b031681565b6040516001600160a01b0390911681526020016101a4565b61023961023436600461184e565b61053b565b005b60095461024f9062010000900461ffff1681565b60405161ffff90911681526020016101a4565b6101d8610605565b610239610278366004611878565b610612565b61023961028b366004611878565b610794565b61023961029e36600461193f565b610853565b61020e6102b1366004611780565b6003602052600090815260409020546001600160a01b031681565b6101d86108d0565b6102f46102e2366004611987565b60026020526000908152604090205481565b6040519081526020016101a4565b6102396108dd565b61023961031836600461184e565b610918565b61023961032b36600461193f565b610955565b61020e6109c7565b61020e6103463660046119e3565b6109d6565b6101d8610a2a565b60095461024f9061ffff1681565b61023961036f366004611a3c565b610a37565b610387610382366004611780565b610aa3565b6040516101a49190611a78565b6102396103a2366004611aaf565b610ab4565b6102f46103b5366004611b3c565b610b76565b6101d86103c8366004611780565b610b97565b6102396103db366004611b6f565b610c1c565b6101c06103ee366004611bba565b600560209081526000928352604080842090915290825290205460ff1681565b6101c061041c366004611780565b610cf4565b61023961042f366004611987565b610d31565b6102f47f53830f36ae1afd5a27cb5c733cbb7d8e37f4180a90f2238fd1fc48909235dac781565b60006301ffc9a760e01b6001600160e01b03198316148061048c57506380ac58cd60e01b6001600160e01b03198316145b806104a75750635b5e139f60e01b6001600160e01b03198316145b92915050565b600080546104ba90611be4565b80601f01602080910402602001604051908101604052809291908181526020018280546104e690611be4565b80156105335780601f1061050857610100808354040283529160200191610533565b820191906000526020600020905b81548152906001019060200180831161051657829003601f168201915b505050505081565b6000818152600360205260409020546001600160a01b03163381148061058457506001600160a01b038116600090815260056020908152604080832033845290915290205460ff165b6105a95760405162461bcd60e51b81526004016105a090611c1f565b60405180910390fd5b60008281526004602052604080822080546001600160a01b0319166001600160a01b0387811691821790925591518593918516917f8c5be1e5ebec7d5bd14f71427d1e84f3dd0314c0f7b2291e5b200ac8c7c3b92591a4505050565b600880546104ba90611be4565b6000818152600360205260409020546001600160a01b038481169116146106685760405162461bcd60e51b815260206004820152600a60248201526957524f4e475f46524f4d60b01b60448201526064016105a0565b6001600160a01b03821661068e5760405162461bcd60e51b81526004016105a090611c47565b336001600160a01b03841614806106bb57506000818152600460205260409020546001600160a01b031633145b806106e957506001600160a01b038316600090815260056020908152604080832033845290915290205460ff165b6107055760405162461bcd60e51b81526004016105a090611c1f565b6001600160a01b0380841660008181526002602090815260408083208054600019019055938616808352848320805460010190558583526003825284832080546001600160a01b03199081168317909155600490925284832080549092169091559251849392917fddf252ad1be2c89b69c2b068fc378daa952ba7f163c4a11628f55a4df523b3ef91a4505050565b61079f838383610612565b6001600160a01b0382163b15806108325750604051630a85bd0160e11b808252906001600160a01b0384169063150b7a02906107e390339088908790600401611c72565b6020604051808303816000875af1158015610802573d6000803e3d6000fd5b505050506040513d601f19601f820116820180604052508101906108269190611ca5565b6001600160e01b031916145b61084e5760405162461bcd60e51b81526004016105a090611cc2565b505050565b3361085c6109c7565b6001600160a01b0316146108825760405162461bcd60e51b81526004016105a090611cec565b80516108959060079060208401906116bd565b507f6741b2fc379fad678116fe3d4d4b9a1a184ab53ba36b86ad0fa66340b1ab41ad816040516108c59190611824565b60405180910390a150565b600780546104ba90611be4565b336108e66109c7565b6001600160a01b03161461090c5760405162461bcd60e51b81526004016105a090611cec565b6109166000610dd1565b565b336109216109c7565b6001600160a01b0316146109475760405162461bcd60e51b81526004016105a090611cec565b6109518282610e23565b5050565b3361095e6109c7565b6001600160a01b0316146109845760405162461bcd60e51b81526004016105a090611cec565b80516109979060089060208401906116bd565b507f80ee62268f37acfc25ec039b3bdc164eb560c675d21e677b7452e1f34a56897a816040516108c59190611824565b6006546001600160a01b031690565b6000610a216109e58686610edd565b84848080601f016020809104026020016040519081016040528093929190818152602001838380828437600092019190915250610f4492505050565b95945050505050565b600180546104ba90611be4565b3360008181526005602090815260408083206001600160a01b03871680855290835292819020805460ff191686151590811790915590519081529192917f17307eab39ab6107e8899845ad3d59bd9653f200f220920489ca2b5937696c31910160405180910390a35050565b610aab611741565b6104a782610f68565b610abf848484610612565b6001600160a01b0383163b1580610b545750604051630a85bd0160e11b808252906001600160a01b0385169063150b7a0290610b05903390899088908890600401611d21565b6020604051808303816000875af1158015610b24573d6000803e3d6000fd5b505050506040513d601f19601f82011682018060405250810190610b489190611ca5565b6001600160e01b031916145b610b705760405162461bcd60e51b81526004016105a090611cc2565b50505050565b6000610b9061ffff831663ffff0000601086901b16611d74565b9392505050565b60078054606091601084901c916201ffff851691600091610bb790611be4565b905011610bd35760405180602001604052806000815250610c14565b6007610be28361ffff16610ffe565b610bef8361ffff16610ffe565b6008604051602001610c049493929190611e26565b6040516020818303038152906040525b949350505050565b610c2583610cf4565b610c675760405162461bcd60e51b81526020600482015260136024820152721b9bdd081a5b9cda5919481d1a194819dc9a59606a1b60448201526064016105a0565b610cb0610c743385610edd565b83838080601f0160208091040260200160405190810160405280939291908181526020018383808284376000920191909152506110fb92505050565b610cea5760405162461bcd60e51b815260206004820152600b60248201526a696e76616c69642073696760a81b60448201526064016105a0565b61084e3384610e23565b600954600090601083901c906201ffff84169061ffff908116908316108015610c14575060095462010000900461ffff9081169116109392505050565b33610d3a6109c7565b6001600160a01b031614610d605760405162461bcd60e51b81526004016105a090611cec565b6001600160a01b038116610dc55760405162461bcd60e51b815260206004820152602660248201527f4f776e61626c653a206e6577206f776e657220697320746865207a65726f206160448201526564647265737360d01b60648201526084016105a0565b610dce81610dd1565b50565b600680546001600160a01b038381166001600160a01b0319831681179093556040519116919082907f8be0079c531659141344cd1fd0a4f28419497f9722a3daafe3b4186f6b6457e090600090a35050565b610e2d8282611129565b6001600160a01b0382163b1580610ec15750604051630a85bd0160e11b808252906001600160a01b0384169063150b7a0290610e729033906000908790600401611c72565b6020604051808303816000875af1158015610e91573d6000803e3d6000fd5b505050506040513d601f19601f82011682018060405250810190610eb59190611ca5565b6001600160e01b031916145b6109515760405162461bcd60e51b81526004016105a090611cc2565b604080517f53830f36ae1afd5a27cb5c733cbb7d8e37f4180a90f2238fd1fc48909235dac760208201526001600160a01b0384169181019190915260608101829052600090610b909060800160405160208183030381529060405280519060200120611210565b6000806000610f53858561125e565b91509150610f60816112ce565b509392505050565b610f70611741565b6000828152600360205260409020546001600160a01b031615610fcc576040805160608101825283815260008481526003602090815290839020546001600160a01b031690820152908101610fc484610b97565b905292915050565b50506040805160608101825260008082526020808301829052835190810184529081529181019190915290565b919050565b6060816110225750506040805180820190915260018152600360fc1b602082015290565b8160005b811561104c578061103681611e7a565b91506110459050600a83611eab565b9150611026565b6000816001600160401b03811115611066576110666118b4565b6040519080825280601f01601f191660200182016040528015611090576020820181803683370190505b5090505b8415610c14576110a5600183611ebf565b91506110b2600a86611ed6565b6110bd906030611d74565b60f81b8183815181106110d2576110d2611eea565b60200101906001600160f81b031916908160001a9053506110f4600a86611eab565b9450611094565b60006111078383610f44565b6001600160a01b03166111186109c7565b6001600160a01b0316149392505050565b6001600160a01b03821661114f5760405162461bcd60e51b81526004016105a090611c47565b6000818152600360205260409020546001600160a01b0316156111a55760405162461bcd60e51b815260206004820152600e60248201526d1053149150511657d3525395115160921b60448201526064016105a0565b6001600160a01b038216600081815260026020908152604080832080546001019055848352600390915280822080546001600160a01b0319168417905551839291907fddf252ad1be2c89b69c2b068fc378daa952ba7f163c4a11628f55a4df523b3ef908290a45050565b60006104a761121d611484565b8360405161190160f01b6020820152602281018390526042810182905260009060620160405160208183030381529060405280519060200120905092915050565b6000808251604114156112955760208301516040840151606085015160001a611289878285856115ab565b945094505050506112c7565b8251604014156112bf57602083015160408401516112b486838361168e565b9350935050506112c7565b506000905060025b9250929050565b60008160048111156112e2576112e2611f00565b14156112eb5750565b60018160048111156112ff576112ff611f00565b14156113485760405162461bcd60e51b815260206004820152601860248201527745434453413a20696e76616c6964207369676e617475726560401b60448201526064016105a0565b600281600481111561135c5761135c611f00565b14156113aa5760405162461bcd60e51b815260206004820152601f60248201527f45434453413a20696e76616c6964207369676e6174757265206c656e6774680060448201526064016105a0565b60038160048111156113be576113be611f00565b14156114175760405162461bcd60e51b815260206004820152602260248201527f45434453413a20696e76616c6964207369676e6174757265202773272076616c604482015261756560f01b60648201526084016105a0565b600481600481111561142b5761142b611f00565b1415610dce5760405162461bcd60e51b815260206004820152602260248201527f45434453413a20696e76616c6964207369676e6174757265202776272076616c604482015261756560f01b60648201526084016105a0565b6000306001600160a01b037f0000000000000000000000000000000000000000000000000000000000000000161480156114dd57507f000000000000000000000000000000000000000000000000000000000000000046145b1561150757507f000000000000000000000000000000000000000000000000000000000000000090565b50604080517f00000000000000000000000000000000000000000000000000000000000000006020808301919091527f0000000000000000000000000000000000000000000000000000000000000000828401527f000000000000000000000000000000000000000000000000000000000000000060608301524660808301523060a0808401919091528351808403909101815260c0909201909252805191012090565b6000806fa2a8918ca85bafe22016d0b997e4df60600160ff1b038311156115d85750600090506003611685565b8460ff16601b141580156115f057508460ff16601c14155b156116015750600090506004611685565b6040805160008082526020820180845289905260ff881692820192909252606081018690526080810185905260019060a0016020604051602081039080840390855afa158015611655573d6000803e3d6000fd5b5050604051601f1901519150506001600160a01b03811661167e57600060019250925050611685565b9150600090505b94509492505050565b6000806001600160ff1b03831660ff84901c601b016116af878288856115ab565b935093505050935093915050565b8280546116c990611be4565b90600052602060002090601f0160209004810192826116eb5760008555611731565b82601f1061170457805160ff1916838001178555611731565b82800160010185558215611731579182015b82811115611731578251825591602001919060010190611716565b5061173d92915061176b565b5090565b60405180606001604052806000815260200160006001600160a01b03168152602001606081525090565b5b8082111561173d576000815560010161176c565b60006020828403121561179257600080fd5b5035919050565b6001600160e01b031981168114610dce57600080fd5b6000602082840312156117c157600080fd5b8135610b9081611799565b60005b838110156117e75781810151838201526020016117cf565b83811115610b705750506000910152565b600081518084526118108160208601602086016117cc565b601f01601f19169290920160200192915050565b602081526000610b9060208301846117f8565b80356001600160a01b0381168114610ff957600080fd5b6000806040838503121561186157600080fd5b61186a83611837565b946020939093013593505050565b60008060006060848603121561188d57600080fd5b61189684611837565b92506118a460208501611837565b9150604084013590509250925092565b634e487b7160e01b600052604160045260246000fd5b60006001600160401b03808411156118e4576118e46118b4565b604051601f8501601f19908116603f0116810190828211818310171561190c5761190c6118b4565b8160405280935085815286868601111561192557600080fd5b858560208301376000602087830101525050509392505050565b60006020828403121561195157600080fd5b81356001600160401b0381111561196757600080fd5b8201601f8101841361197857600080fd5b610c14848235602084016118ca565b60006020828403121561199957600080fd5b610b9082611837565b60008083601f8401126119b457600080fd5b5081356001600160401b038111156119cb57600080fd5b6020830191508360208285010111156112c757600080fd5b600080600080606085870312156119f957600080fd5b611a0285611837565b93506020850135925060408501356001600160401b03811115611a2457600080fd5b611a30878288016119a2565b95989497509550505050565b60008060408385031215611a4f57600080fd5b611a5883611837565b915060208301358015158114611a6d57600080fd5b809150509250929050565b602081528151602082015260018060a01b03602083015116604082015260006040830151606080840152610c1460808401826117f8565b60008060008060808587031215611ac557600080fd5b611ace85611837565b9350611adc60208601611837565b92506040850135915060608501356001600160401b03811115611afe57600080fd5b8501601f81018713611b0f57600080fd5b611b1e878235602084016118ca565b91505092959194509250565b803561ffff81168114610ff957600080fd5b60008060408385031215611b4f57600080fd5b611b5883611b2a565b9150611b6660208401611b2a565b90509250929050565b600080600060408486031215611b8457600080fd5b8335925060208401356001600160401b03811115611ba157600080fd5b611bad868287016119a2565b9497909650939450505050565b60008060408385031215611bcd57600080fd5b611bd683611837565b9150611b6660208401611837565b600181811c90821680611bf857607f821691505b60208210811415611c1957634e487b7160e01b600052602260045260246000fd5b50919050565b6020808252600e908201526d1393d517d055551213d49256915160921b604082015260600190565b6020808252601190820152701253959053125117d49150d25412515395607a1b604082015260600190565b6001600160a01b039384168152919092166020820152604081019190915260806060820181905260009082015260a00190565b600060208284031215611cb757600080fd5b8151610b9081611799565b60208082526010908201526f155394d0519157d49150d2541251539560821b604082015260600190565b6020808252818101527f4f776e61626c653a2063616c6c6572206973206e6f7420746865206f776e6572604082015260600190565b6001600160a01b0385811682528416602082015260408101839052608060608201819052600090611d54908301846117f8565b9695505050505050565b634e487b7160e01b600052601160045260246000fd5b60008219821115611d8757611d87611d5e565b500190565b8054600090600181811c9080831680611da657607f831692505b6020808410821415611dc857634e487b7160e01b600052602260045260246000fd5b818015611ddc5760018114611ded57611e1a565b60ff19861689528489019650611e1a565b60008881526020902060005b86811015611e125781548b820152908501908301611df9565b505084890196505b50505050505092915050565b6000611e328287611d8c565b8551611e42818360208a016117cc565b600f60fb1b91019081528451611e5f8160018401602089016117cc565b611e6e60018284010186611d8c565b98975050505050505050565b6000600019821415611e8e57611e8e611d5e565b5060010190565b634e487b7160e01b600052601260045260246000fd5b600082611eba57611eba611e95565b500490565b600082821015611ed157611ed1611d5e565b500390565b600082611ee557611ee5611e95565b500690565b634e487b7160e01b600052603260045260246000fd5b634e487b7160e01b600052602160045260246000fdfea2646970667358221220a61210ec5cacb6bed9b4e5ac677d7600985842019030ed424a3c07e77b593abd64736f6c634300080a0033",
  "devdoc": {
    "kind": "dev",
    "methods": {
      "constructor": {
        "params": {
          "_name": "NFT name",
          "_newBaseURI": "base URI to use for assets",
          "_newURISuffix": "URI suffix to use for assets",
          "_symbol": "NFT symbol"
        }
      },
      "owner()": {
        "details": "Returns the address of the current owner."
      },
      "redeem(uint256,bytes)": {
        "params": {
          "_sig": "EIP712 signature to validate",
          "_tokenId": "token ID to mint"
        }
      },
      "redeemFor(address,uint256)": {
        "params": {
          "_to": "Address of the recipient",
          "_tokenId": "token ID to mint"
        }
      },
      "renounceOwnership()": {
        "details": "Leaves the contract without owner. It will not be possible to call `onlyOwner` functions anymore. Can only be called by the current owner. NOTE: Renouncing ownership will leave the contract without an owner, thereby removing any functionality that is only available to the owner."
      },
      "setBaseURI(string)": {
        "params": {
          "_newBaseURI": "new base URI for the token"
        }
      },
      "setURISuffix(string)": {
        "params": {
          "_newURISuffix": "new URI suffix for the token"
        }
      },
      "tokenData(uint256)": {
        "params": {
          "tokenId": "the token ID"
        },
        "returns": {
          "_0": "token data"
        }
      },
      "transferOwnership(address)": {
        "details": "Transfers ownership of the contract to a new account (`newOwner`). Can only be called by the current owner."
      }
    },
    "version": 1
  },
  "userdoc": {
    "events": {
      "BaseURIUpdated(string)": {
        "notice": "Emitted when the base URI changes"
      },
      "URISuffixUpdated(string)": {
        "notice": "Emitted when the URI suffix changes"
      }
    },
    "kind": "user",
    "methods": {
      "URISuffix()": {
        "notice": "Suffix for the URI of all NFTs;"
      },
      "baseURI()": {
        "notice": "Base URI for all NFTs"
      },
      "redeem(uint256,bytes)": {
        "notice": "Mints a new NFT"
      },
      "redeemFor(address,uint256)": {
        "notice": "Mints a new NFT on behalf of an accountOnly callable by an approved operator"
      },
      "setBaseURI(string)": {
        "notice": "Updates the base URIOnly callable by an authorized operator"
      },
      "setURISuffix(string)": {
        "notice": "Updates the URI suffixOnly callable by an authorized operator"
      },
      "tokenData(uint256)": {
        "notice": "Returns info for a token based on his ID"
      }
    },
    "notice": "An NFT representing the Subvisual Universe",
    "version": 1
  },
  "storageLayout": {
    "storage": [
      {
        "astId": 902,
        "contract": "contracts/SubvisualUniverseNFT.sol:SubvisualUniverseNFT",
        "label": "name",
        "offset": 0,
        "slot": "0",
        "type": "t_string_storage"
      },
      {
        "astId": 904,
        "contract": "contracts/SubvisualUniverseNFT.sol:SubvisualUniverseNFT",
        "label": "symbol",
        "offset": 0,
        "slot": "1",
        "type": "t_string_storage"
      },
      {
        "astId": 915,
        "contract": "contracts/SubvisualUniverseNFT.sol:SubvisualUniverseNFT",
        "label": "balanceOf",
        "offset": 0,
        "slot": "2",
        "type": "t_mapping(t_address,t_uint256)"
      },
      {
        "astId": 919,
        "contract": "contracts/SubvisualUniverseNFT.sol:SubvisualUniverseNFT",
        "label": "ownerOf",
        "offset": 0,
        "slot": "3",
        "type": "t_mapping(t_uint256,t_address)"
      },
      {
        "astId": 923,
        "contract": "contracts/SubvisualUniverseNFT.sol:SubvisualUniverseNFT",
        "label": "getApproved",
        "offset": 0,
        "slot": "4",
        "type": "t_mapping(t_uint256,t_address)"
      },
      {
        "astId": 929,
        "contract": "contracts/SubvisualUniverseNFT.sol:SubvisualUniverseNFT",
        "label": "isApprovedForAll",
        "offset": 0,
        "slot": "5",
        "type": "t_mapping(t_address,t_mapping(t_address,t_bool))"
      },
      {
        "astId": 7,
        "contract": "contracts/SubvisualUniverseNFT.sol:SubvisualUniverseNFT",
        "label": "_owner",
        "offset": 0,
        "slot": "6",
        "type": "t_address"
      },
      {
        "astId": 1429,
        "contract": "contracts/SubvisualUniverseNFT.sol:SubvisualUniverseNFT",
        "label": "baseURI",
        "offset": 0,
        "slot": "7",
        "type": "t_string_storage"
      },
      {
        "astId": 1432,
        "contract": "contracts/SubvisualUniverseNFT.sol:SubvisualUniverseNFT",
        "label": "URISuffix",
        "offset": 0,
        "slot": "8",
        "type": "t_string_storage"
      },
      {
        "astId": 1434,
        "contract": "contracts/SubvisualUniverseNFT.sol:SubvisualUniverseNFT",
        "label": "width",
        "offset": 0,
        "slot": "9",
        "type": "t_uint16"
      },
      {
        "astId": 1436,
        "contract": "contracts/SubvisualUniverseNFT.sol:SubvisualUniverseNFT",
        "label": "height",
        "offset": 2,
        "slot": "9",
        "type": "t_uint16"
      }
    ],
    "types": {
      "t_address": {
        "encoding": "inplace",
        "label": "address",
        "numberOfBytes": "20"
      },
      "t_bool": {
        "encoding": "inplace",
        "label": "bool",
        "numberOfBytes": "1"
      },
      "t_mapping(t_address,t_bool)": {
        "encoding": "mapping",
        "key": "t_address",
        "label": "mapping(address => bool)",
        "numberOfBytes": "32",
        "value": "t_bool"
      },
      "t_mapping(t_address,t_mapping(t_address,t_bool))": {
        "encoding": "mapping",
        "key": "t_address",
        "label": "mapping(address => mapping(address => bool))",
        "numberOfBytes": "32",
        "value": "t_mapping(t_address,t_bool)"
      },
      "t_mapping(t_address,t_uint256)": {
        "encoding": "mapping",
        "key": "t_address",
        "label": "mapping(address => uint256)",
        "numberOfBytes": "32",
        "value": "t_uint256"
      },
      "t_mapping(t_uint256,t_address)": {
        "encoding": "mapping",
        "key": "t_uint256",
        "label": "mapping(uint256 => address)",
        "numberOfBytes": "32",
        "value": "t_address"
      },
      "t_string_storage": {
        "encoding": "bytes",
        "label": "string",
        "numberOfBytes": "32"
      },
      "t_uint16": {
        "encoding": "inplace",
        "label": "uint16",
        "numberOfBytes": "2"
      },
      "t_uint256": {
        "encoding": "inplace",
        "label": "uint256",
        "numberOfBytes": "32"
      }
    }
  }
}