{
  "address": "0x9ce37148F5E347E55857C22c012B0741e4733130",
  "abi": [
    {
      "inputs": [
        {
          "internalType": "string",
          "name": "_name",
          "type": "string"
        },
        {
          "internalType": "string",
          "name": "_symbol",
          "type": "string"
        },
        {
          "internalType": "string",
          "name": "_newBaseURI",
          "type": "string"
        },
        {
          "internalType": "string",
          "name": "_newURISuffix",
          "type": "string"
        },
        {
          "internalType": "uint16",
          "name": "_width",
          "type": "uint16"
        },
        {
          "internalType": "uint16",
          "name": "_height",
          "type": "uint16"
        }
      ],
      "stateMutability": "nonpayable",
      "type": "constructor"
    },
    {
      "anonymous": false,
      "inputs": [
        {
          "indexed": true,
          "internalType": "address",
          "name": "owner",
          "type": "address"
        },
        {
          "indexed": true,
          "internalType": "address",
          "name": "approved",
          "type": "address"
        },
        {
          "indexed": true,
          "internalType": "uint256",
          "name": "tokenId",
          "type": "uint256"
        }
      ],
      "name": "Approval",
      "type": "event"
    },
    {
      "anonymous": false,
      "inputs": [
        {
          "indexed": true,
          "internalType": "address",
          "name": "owner",
          "type": "address"
        },
        {
          "indexed": true,
          "internalType": "address",
          "name": "operator",
          "type": "address"
        },
        {
          "indexed": false,
          "internalType": "bool",
          "name": "approved",
          "type": "bool"
        }
      ],
      "name": "ApprovalForAll",
      "type": "event"
    },
    {
      "anonymous": false,
      "inputs": [
        {
          "indexed": false,
          "internalType": "string",
          "name": "newBaseURI",
          "type": "string"
        }
      ],
      "name": "BaseURIUpdated",
      "type": "event"
    },
    {
      "anonymous": false,
      "inputs": [
        {
          "indexed": true,
          "internalType": "bytes32",
          "name": "role",
          "type": "bytes32"
        },
        {
          "indexed": true,
          "internalType": "bytes32",
          "name": "previousAdminRole",
          "type": "bytes32"
        },
        {
          "indexed": true,
          "internalType": "bytes32",
          "name": "newAdminRole",
          "type": "bytes32"
        }
      ],
      "name": "RoleAdminChanged",
      "type": "event"
    },
    {
      "anonymous": false,
      "inputs": [
        {
          "indexed": true,
          "internalType": "bytes32",
          "name": "role",
          "type": "bytes32"
        },
        {
          "indexed": true,
          "internalType": "address",
          "name": "account",
          "type": "address"
        },
        {
          "indexed": true,
          "internalType": "address",
          "name": "sender",
          "type": "address"
        }
      ],
      "name": "RoleGranted",
      "type": "event"
    },
    {
      "anonymous": false,
      "inputs": [
        {
          "indexed": true,
          "internalType": "bytes32",
          "name": "role",
          "type": "bytes32"
        },
        {
          "indexed": true,
          "internalType": "address",
          "name": "account",
          "type": "address"
        },
        {
          "indexed": true,
          "internalType": "address",
          "name": "sender",
          "type": "address"
        }
      ],
      "name": "RoleRevoked",
      "type": "event"
    },
    {
      "anonymous": false,
      "inputs": [
        {
          "indexed": true,
          "internalType": "address",
          "name": "from",
          "type": "address"
        },
        {
          "indexed": true,
          "internalType": "address",
          "name": "to",
          "type": "address"
        },
        {
          "indexed": true,
          "internalType": "uint256",
          "name": "tokenId",
          "type": "uint256"
        }
      ],
      "name": "Transfer",
      "type": "event"
    },
    {
      "anonymous": false,
      "inputs": [
        {
          "indexed": false,
          "internalType": "string",
          "name": "newURISuffix",
          "type": "string"
        }
      ],
      "name": "URISuffixUpdated",
      "type": "event"
    },
    {
      "inputs": [],
      "name": "DEFAULT_ADMIN_ROLE",
      "outputs": [
        {
          "internalType": "bytes32",
          "name": "",
          "type": "bytes32"
        }
      ],
      "stateMutability": "view",
      "type": "function"
    },
    {
      "inputs": [],
      "name": "MINT_TYPEHASH",
      "outputs": [
        {
          "internalType": "bytes32",
          "name": "",
          "type": "bytes32"
        }
      ],
      "stateMutability": "view",
      "type": "function"
    },
    {
      "inputs": [],
      "name": "OPERATOR_ROLE",
      "outputs": [
        {
          "internalType": "bytes32",
          "name": "",
          "type": "bytes32"
        }
      ],
      "stateMutability": "view",
      "type": "function"
    },
    {
      "inputs": [],
      "name": "URISuffix",
      "outputs": [
        {
          "internalType": "string",
          "name": "",
          "type": "string"
        }
      ],
      "stateMutability": "view",
      "type": "function"
    },
    {
      "inputs": [
        {
          "internalType": "address",
          "name": "to",
          "type": "address"
        },
        {
          "internalType": "uint256",
          "name": "tokenId",
          "type": "uint256"
        }
      ],
      "name": "approve",
      "outputs": [],
      "stateMutability": "nonpayable",
      "type": "function"
    },
    {
      "inputs": [
        {
          "internalType": "address",
          "name": "owner",
          "type": "address"
        }
      ],
      "name": "balanceOf",
      "outputs": [
        {
          "internalType": "uint256",
          "name": "",
          "type": "uint256"
        }
      ],
      "stateMutability": "view",
      "type": "function"
    },
    {
      "inputs": [],
      "name": "baseURI",
      "outputs": [
        {
          "internalType": "string",
          "name": "",
          "type": "string"
        }
      ],
      "stateMutability": "view",
      "type": "function"
    },
    {
      "inputs": [
        {
          "internalType": "uint16",
          "name": "x",
          "type": "uint16"
        },
        {
          "internalType": "uint16",
          "name": "y",
          "type": "uint16"
        }
      ],
      "name": "coordsToId",
      "outputs": [
        {
          "internalType": "uint256",
          "name": "",
          "type": "uint256"
        }
      ],
      "stateMutability": "pure",
      "type": "function"
    },
    {
      "inputs": [
        {
          "internalType": "uint256",
          "name": "tokenId",
          "type": "uint256"
        }
      ],
      "name": "getApproved",
      "outputs": [
        {
          "internalType": "address",
          "name": "",
          "type": "address"
        }
      ],
      "stateMutability": "view",
      "type": "function"
    },
    {
      "inputs": [
        {
          "internalType": "bytes32",
          "name": "role",
          "type": "bytes32"
        }
      ],
      "name": "getRoleAdmin",
      "outputs": [
        {
          "internalType": "bytes32",
          "name": "",
          "type": "bytes32"
        }
      ],
      "stateMutability": "view",
      "type": "function"
    },
    {
      "inputs": [
        {
          "internalType": "bytes32",
          "name": "role",
          "type": "bytes32"
        },
        {
          "internalType": "address",
          "name": "account",
          "type": "address"
        }
      ],
      "name": "grantRole",
      "outputs": [],
      "stateMutability": "nonpayable",
      "type": "function"
    },
    {
      "inputs": [
        {
          "internalType": "bytes32",
          "name": "role",
          "type": "bytes32"
        },
        {
          "internalType": "address",
          "name": "account",
          "type": "address"
        }
      ],
      "name": "hasRole",
      "outputs": [
        {
          "internalType": "bool",
          "name": "",
          "type": "bool"
        }
      ],
      "stateMutability": "view",
      "type": "function"
    },
    {
      "inputs": [],
      "name": "height",
      "outputs": [
        {
          "internalType": "uint16",
          "name": "",
          "type": "uint16"
        }
      ],
      "stateMutability": "view",
      "type": "function"
    },
    {
      "inputs": [
        {
          "internalType": "uint256",
          "name": "id",
          "type": "uint256"
        }
      ],
      "name": "idToCoords",
      "outputs": [
        {
          "internalType": "uint16",
          "name": "x",
          "type": "uint16"
        },
        {
          "internalType": "uint16",
          "name": "y",
          "type": "uint16"
        }
      ],
      "stateMutability": "pure",
      "type": "function"
    },
    {
      "inputs": [
        {
          "internalType": "uint256",
          "name": "_tokenId",
          "type": "uint256"
        }
      ],
      "name": "inBoundaries",
      "outputs": [
        {
          "internalType": "bool",
          "name": "",
          "type": "bool"
        }
      ],
      "stateMutability": "view",
      "type": "function"
    },
    {
      "inputs": [
        {
          "internalType": "address",
          "name": "owner",
          "type": "address"
        },
        {
          "internalType": "address",
          "name": "operator",
          "type": "address"
        }
      ],
      "name": "isApprovedForAll",
      "outputs": [
        {
          "internalType": "bool",
          "name": "",
          "type": "bool"
        }
      ],
      "stateMutability": "view",
      "type": "function"
    },
    {
      "inputs": [],
      "name": "name",
      "outputs": [
        {
          "internalType": "string",
          "name": "",
          "type": "string"
        }
      ],
      "stateMutability": "view",
      "type": "function"
    },
    {
      "inputs": [
        {
          "internalType": "uint256",
          "name": "tokenId",
          "type": "uint256"
        }
      ],
      "name": "ownerOf",
      "outputs": [
        {
          "internalType": "address",
          "name": "",
          "type": "address"
        }
      ],
      "stateMutability": "view",
      "type": "function"
    },
    {
      "inputs": [
        {
          "internalType": "uint256",
          "name": "_tokenId",
          "type": "uint256"
        },
        {
          "internalType": "bytes",
          "name": "_sig",
          "type": "bytes"
        }
      ],
      "name": "redeem",
      "outputs": [],
      "stateMutability": "nonpayable",
      "type": "function"
    },
    {
      "inputs": [
        {
          "internalType": "address",
          "name": "_to",
          "type": "address"
        },
        {
          "internalType": "uint256",
          "name": "_tokenId",
          "type": "uint256"
        }
      ],
      "name": "redeemFor",
      "outputs": [],
      "stateMutability": "nonpayable",
      "type": "function"
    },
    {
      "inputs": [
        {
          "internalType": "bytes32",
          "name": "role",
          "type": "bytes32"
        },
        {
          "internalType": "address",
          "name": "account",
          "type": "address"
        }
      ],
      "name": "renounceRole",
      "outputs": [],
      "stateMutability": "nonpayable",
      "type": "function"
    },
    {
      "inputs": [
        {
          "internalType": "bytes32",
          "name": "role",
          "type": "bytes32"
        },
        {
          "internalType": "address",
          "name": "account",
          "type": "address"
        }
      ],
      "name": "revokeRole",
      "outputs": [],
      "stateMutability": "nonpayable",
      "type": "function"
    },
    {
      "inputs": [
        {
          "internalType": "address",
          "name": "from",
          "type": "address"
        },
        {
          "internalType": "address",
          "name": "to",
          "type": "address"
        },
        {
          "internalType": "uint256",
          "name": "tokenId",
          "type": "uint256"
        }
      ],
      "name": "safeTransferFrom",
      "outputs": [],
      "stateMutability": "nonpayable",
      "type": "function"
    },
    {
      "inputs": [
        {
          "internalType": "address",
          "name": "from",
          "type": "address"
        },
        {
          "internalType": "address",
          "name": "to",
          "type": "address"
        },
        {
          "internalType": "uint256",
          "name": "tokenId",
          "type": "uint256"
        },
        {
          "internalType": "bytes",
          "name": "_data",
          "type": "bytes"
        }
      ],
      "name": "safeTransferFrom",
      "outputs": [],
      "stateMutability": "nonpayable",
      "type": "function"
    },
    {
      "inputs": [
        {
          "internalType": "address",
          "name": "operator",
          "type": "address"
        },
        {
          "internalType": "bool",
          "name": "approved",
          "type": "bool"
        }
      ],
      "name": "setApprovalForAll",
      "outputs": [],
      "stateMutability": "nonpayable",
      "type": "function"
    },
    {
      "inputs": [
        {
          "internalType": "string",
          "name": "_newBaseURI",
          "type": "string"
        }
      ],
      "name": "setBaseURI",
      "outputs": [],
      "stateMutability": "nonpayable",
      "type": "function"
    },
    {
      "inputs": [
        {
          "internalType": "string",
          "name": "_newURISuffix",
          "type": "string"
        }
      ],
      "name": "setURISuffix",
      "outputs": [],
      "stateMutability": "nonpayable",
      "type": "function"
    },
    {
      "inputs": [
        {
          "internalType": "bytes4",
          "name": "interfaceId",
          "type": "bytes4"
        }
      ],
      "name": "supportsInterface",
      "outputs": [
        {
          "internalType": "bool",
          "name": "",
          "type": "bool"
        }
      ],
      "stateMutability": "view",
      "type": "function"
    },
    {
      "inputs": [],
      "name": "symbol",
      "outputs": [
        {
          "internalType": "string",
          "name": "",
          "type": "string"
        }
      ],
      "stateMutability": "view",
      "type": "function"
    },
    {
      "inputs": [
        {
          "internalType": "uint256",
          "name": "index",
          "type": "uint256"
        }
      ],
      "name": "tokenByIndex",
      "outputs": [
        {
          "internalType": "uint256",
          "name": "",
          "type": "uint256"
        }
      ],
      "stateMutability": "view",
      "type": "function"
    },
    {
      "inputs": [
        {
          "internalType": "uint256",
          "name": "tokenId",
          "type": "uint256"
        }
      ],
      "name": "tokenData",
      "outputs": [
        {
          "components": [
            {
              "internalType": "uint256",
              "name": "id",
              "type": "uint256"
            },
            {
              "internalType": "address",
              "name": "owner",
              "type": "address"
            },
            {
              "internalType": "string",
              "name": "uri",
              "type": "string"
            }
          ],
          "internalType": "struct SubvisualUniverseNFT.Data",
          "name": "",
          "type": "tuple"
        }
      ],
      "stateMutability": "view",
      "type": "function"
    },
    {
      "inputs": [
        {
          "internalType": "uint256",
          "name": "idx",
          "type": "uint256"
        }
      ],
      "name": "tokenDataByIndex",
      "outputs": [
        {
          "components": [
            {
              "internalType": "uint256",
              "name": "id",
              "type": "uint256"
            },
            {
              "internalType": "address",
              "name": "owner",
              "type": "address"
            },
            {
              "internalType": "string",
              "name": "uri",
              "type": "string"
            }
          ],
          "internalType": "struct SubvisualUniverseNFT.Data",
          "name": "",
          "type": "tuple"
        }
      ],
      "stateMutability": "view",
      "type": "function"
    },
    {
      "inputs": [
        {
          "internalType": "address",
          "name": "owner",
          "type": "address"
        },
        {
          "internalType": "uint256",
          "name": "index",
          "type": "uint256"
        }
      ],
      "name": "tokenOfOwnerByIndex",
      "outputs": [
        {
          "internalType": "uint256",
          "name": "",
          "type": "uint256"
        }
      ],
      "stateMutability": "view",
      "type": "function"
    },
    {
      "inputs": [
        {
          "internalType": "uint256",
          "name": "tokenId",
          "type": "uint256"
        }
      ],
      "name": "tokenURI",
      "outputs": [
        {
          "internalType": "string",
          "name": "",
          "type": "string"
        }
      ],
      "stateMutability": "view",
      "type": "function"
    },
    {
      "inputs": [
        {
          "internalType": "uint256",
          "name": "_from",
          "type": "uint256"
        },
        {
          "internalType": "uint256",
          "name": "_max",
          "type": "uint256"
        }
      ],
      "name": "tokensDataByRange",
      "outputs": [
        {
          "components": [
            {
              "internalType": "uint256",
              "name": "id",
              "type": "uint256"
            },
            {
              "internalType": "address",
              "name": "owner",
              "type": "address"
            },
            {
              "internalType": "string",
              "name": "uri",
              "type": "string"
            }
          ],
          "internalType": "struct SubvisualUniverseNFT.Data[]",
          "name": "",
          "type": "tuple[]"
        }
      ],
      "stateMutability": "view",
      "type": "function"
    },
    {
      "inputs": [],
      "name": "totalSupply",
      "outputs": [
        {
          "internalType": "uint256",
          "name": "",
          "type": "uint256"
        }
      ],
      "stateMutability": "view",
      "type": "function"
    },
    {
      "inputs": [
        {
          "internalType": "address",
          "name": "from",
          "type": "address"
        },
        {
          "internalType": "address",
          "name": "to",
          "type": "address"
        },
        {
          "internalType": "uint256",
          "name": "tokenId",
          "type": "uint256"
        }
      ],
      "name": "transferFrom",
      "outputs": [],
      "stateMutability": "nonpayable",
      "type": "function"
    },
    {
      "inputs": [],
      "name": "width",
      "outputs": [
        {
          "internalType": "uint16",
          "name": "",
          "type": "uint16"
        }
      ],
      "stateMutability": "view",
      "type": "function"
    }
  ],
  "transactionHash": "0x9c93aefca9e93a95699cf27af6ba4124244d21140a69164d8de1e682476f2f3c",
  "args": [
    "Subvisual Universe NFT",
    "SV-UNI",
    "http://localhost:3000/minted/",
    ".png",
    255,
    255
  ],
  "solcInputHash": "27a45859c182a05211bc129a46f3f548",
  "bytecode": "0x6101406040523480156200001257600080fd5b506040516200366e3803806200366e833981016040819052620000359162000465565b85604051806040016040528060058152602001640312e302e360dc1b815250878781600090805190602001906200006e929190620002cd565b50805162000084906001906020840190620002cd565b5050825160209384012082519284019290922060e08390526101008190524660a0818152604080517f8b73c3c69bb8fe3d512ecc4cf759cc79239f7b179b0ffacaa9a75d522b39400f818901819052818301979097526060810194909452608080850193909352308483018190528151808603909301835260c09485019091528151919096012090529290925261012052506200012360003362000219565b6200014f7f523a704056dcd17bcf83bed8b68c59416dac1119be77755efe3bde0a64e46e0c3362000219565b83516200016490600b906020870190620002cd565b5082516200017a90600c906020860190620002cd565b50600d805461ffff838116620100000263ffffffff19909216908516171790556040517f6741b2fc379fad678116fe3d4d4b9a1a184ab53ba36b86ad0fa66340b1ab41ad90620001cc90869062000542565b60405180910390a17f80ee62268f37acfc25ec039b3bdc164eb560c675d21e677b7452e1f34a56897a8360405162000205919062000542565b60405180910390a1505050505050620005b4565b62000225828262000229565b5050565b6000828152600a602090815260408083206001600160a01b038516845290915290205460ff1662000225576000828152600a602090815260408083206001600160a01b03851684529091529020805460ff19166001179055620002893390565b6001600160a01b0316816001600160a01b0316837f2f8788117e7eff1d82e926ec794901d17c78024a50270940304540a733656f0d60405160405180910390a45050565b828054620002db9062000577565b90600052602060002090601f016020900481019282620002ff57600085556200034a565b82601f106200031a57805160ff19168380011785556200034a565b828001600101855582156200034a579182015b828111156200034a5782518255916020019190600101906200032d565b50620003589291506200035c565b5090565b5b808211156200035857600081556001016200035d565b634e487b7160e01b600052604160045260246000fd5b60005b83811015620003a65781810151838201526020016200038c565b83811115620003b6576000848401525b50505050565b600082601f830112620003ce57600080fd5b81516001600160401b0380821115620003eb57620003eb62000373565b604051601f8301601f19908116603f0116810190828211818310171562000416576200041662000373565b816040528381528660208588010111156200043057600080fd5b6200044384602083016020890162000389565b9695505050505050565b805161ffff811681146200046057600080fd5b919050565b60008060008060008060c087890312156200047f57600080fd5b86516001600160401b03808211156200049757600080fd5b620004a58a838b01620003bc565b97506020890151915080821115620004bc57600080fd5b620004ca8a838b01620003bc565b96506040890151915080821115620004e157600080fd5b620004ef8a838b01620003bc565b955060608901519150808211156200050657600080fd5b506200051589828a01620003bc565b93505062000526608088016200044d565b91506200053660a088016200044d565b90509295509295509295565b60208152600082518060208401526200056381604085016020870162000389565b601f01601f19169190910160400192915050565b600181811c908216806200058c57607f821691505b60208210811415620005ae57634e487b7160e01b600052602260045260246000fd5b50919050565b60805160a05160c05160e051610100516101205161306a6200060460003960006123ca01526000612419015260006123f40152600061234d01526000612377015260006123a1015261306a6000f3fe608060405234801561001057600080fd5b50600436106102925760003560e01c806370a0823111610160578063b88d4fde116100d8578063e77c646d1161008c578063ed5dbebf11610071578063ed5dbebf146105e2578063f5b541a6146105f5578063f76fc35e1461061c57600080fd5b8063e77c646d14610593578063e985e9c5146105a657600080fd5b8063c87b56dd116100bd578063c87b56dd1461054d578063d481a9c714610560578063d547741f1461058057600080fd5b8063b88d4fde14610527578063c18b9e001461053a57600080fd5b806395d89b411161012f578063a217fddf11610114578063a217fddf146104f9578063a22cb46514610501578063b4b5b48f1461051457600080fd5b806395d89b41146104e35780639ededf77146104eb57600080fd5b806370a08231146104715780637a82a1981461048457806381b3e5751461049757806391d14854146104aa57600080fd5b8063248a9ca31161020e5780634f6ccce7116101c257806355f804b3116101a757806355f804b3146104435780636352211e146104565780636c0360eb1461046957600080fd5b80634f6ccce71461041057806350ec5ace1461042357600080fd5b80632f745c59116101f35780632f745c59146103d757806336568abe146103ea57806342842e0e146103fd57600080fd5b8063248a9ca3146103a15780632f2ff15d146103c457600080fd5b8063095ea7b311610265578063101b0fbc1161024a578063101b0fbc1461037457806318160ddd1461037c57806323b872dd1461038e57600080fd5b8063095ea7b3146103385780630ef267431461034d57600080fd5b806301dacdbe1461029757806301ffc9a7146102d557806306fdde03146102f8578063081812fc1461030d575b600080fd5b6102b56102a5366004612863565b601081901c916201ffff90911690565b6040805161ffff9384168152929091166020830152015b60405180910390f35b6102e86102e3366004612892565b610643565b60405190151581526020016102cc565b610300610714565b6040516102cc9190612907565b61032061031b366004612863565b6107a6565b6040516001600160a01b0390911681526020016102cc565b61034b610346366004612936565b610840565b005b600d546103619062010000900461ffff1681565b60405161ffff90911681526020016102cc565b610300610972565b6008545b6040519081526020016102cc565b61034b61039c366004612960565b610a00565b6103806103af366004612863565b6000908152600a602052604090206001015490565b61034b6103d236600461299c565b610a87565b6103806103e5366004612936565b610aad565b61034b6103f836600461299c565b610b55565b61034b61040b366004612960565b610be1565b61038061041e366004612863565b610bfc565b610436610431366004612863565b610ca0565b6040516102cc91906129fa565b61034b610451366004612a99565b610cd7565b610320610464366004612863565b610d51565b610300610ddc565b61038061047f366004612ae2565b610de9565b61034b610492366004612936565b610e83565b61034b6104a5366004612a99565b610eb8565b6102e86104b836600461299c565b6000918252600a602090815260408084206001600160a01b0393909316845291905290205460ff1690565b610300610f26565b600d546103619061ffff1681565b610380600081565b61034b61050f366004612afd565b610f35565b610436610522366004612863565b610f40565b61034b610535366004612b39565b610f65565b610380610548366004612bc7565b610ff3565b61030061055b366004612863565b61100d565b61057361056e366004612bf1565b61111d565b6040516102cc9190612c13565b61034b61058e36600461299c565b611243565b61034b6105a1366004612c75565b611269565b6102e86105b4366004612cf1565b6001600160a01b03918216600090815260056020908152604080832093909416825291909152205460ff1690565b6102e86105f0366004612863565b61131a565b6103807f523a704056dcd17bcf83bed8b68c59416dac1119be77755efe3bde0a64e46e0c81565b6103807f53830f36ae1afd5a27cb5c733cbb7d8e37f4180a90f2238fd1fc48909235dac781565b60006001600160e01b031982167f80ac58cd0000000000000000000000000000000000000000000000000000000014806106a657506001600160e01b031982167f780e9d6300000000000000000000000000000000000000000000000000000000145b806106da57506001600160e01b031982167f5b5e139f00000000000000000000000000000000000000000000000000000000145b8061070e57506001600160e01b031982167f7965db0b00000000000000000000000000000000000000000000000000000000145b92915050565b60606000805461072390612d1b565b80601f016020809104026020016040519081016040528092919081815260200182805461074f90612d1b565b801561079c5780601f106107715761010080835404028352916020019161079c565b820191906000526020600020905b81548152906001019060200180831161077f57829003601f168201915b5050505050905090565b6000818152600260205260408120546001600160a01b03166108245760405162461bcd60e51b815260206004820152602c60248201527f4552433732313a20617070726f76656420717565727920666f72206e6f6e657860448201526b34b9ba32b73a103a37b5b2b760a11b60648201526084015b60405180910390fd5b506000908152600460205260409020546001600160a01b031690565b600061084b82610d51565b9050806001600160a01b0316836001600160a01b031614156108d55760405162461bcd60e51b815260206004820152602160248201527f4552433732313a20617070726f76616c20746f2063757272656e74206f776e6560448201527f7200000000000000000000000000000000000000000000000000000000000000606482015260840161081b565b336001600160a01b03821614806108f157506108f181336105b4565b6109635760405162461bcd60e51b815260206004820152603860248201527f4552433732313a20617070726f76652063616c6c6572206973206e6f74206f7760448201527f6e6572206e6f7220617070726f76656420666f7220616c6c0000000000000000606482015260840161081b565b61096d8383611357565b505050565b600c805461097f90612d1b565b80601f01602080910402602001604051908101604052809291908181526020018280546109ab90612d1b565b80156109f85780601f106109cd576101008083540402835291602001916109f8565b820191906000526020600020905b8154815290600101906020018083116109db57829003601f168201915b505050505081565b610a0a33826113d2565b610a7c5760405162461bcd60e51b815260206004820152603160248201527f4552433732313a207472616e736665722063616c6c6572206973206e6f74206f60448201527f776e6572206e6f7220617070726f766564000000000000000000000000000000606482015260840161081b565b61096d8383836114c5565b6000828152600a6020526040902060010154610aa381336116aa565b61096d838361172a565b6000610ab883610de9565b8210610b2c5760405162461bcd60e51b815260206004820152602b60248201527f455243373231456e756d657261626c653a206f776e657220696e646578206f7560448201527f74206f6620626f756e6473000000000000000000000000000000000000000000606482015260840161081b565b506001600160a01b03919091166000908152600660209081526040808320938352929052205490565b6001600160a01b0381163314610bd35760405162461bcd60e51b815260206004820152602f60248201527f416363657373436f6e74726f6c3a2063616e206f6e6c792072656e6f756e636560448201527f20726f6c657320666f722073656c660000000000000000000000000000000000606482015260840161081b565b610bdd82826117cc565b5050565b61096d83838360405180602001604052806000815250610f65565b6000610c0760085490565b8210610c7b5760405162461bcd60e51b815260206004820152602c60248201527f455243373231456e756d657261626c653a20676c6f62616c20696e646578206f60448201527f7574206f6620626f756e64730000000000000000000000000000000000000000606482015260840161081b565b60088281548110610c8e57610c8e612d56565b90600052602060002001549050919050565b60408051606080820183526000808352602083018190529282015290610cc583610bfc565b9050610cd08161184f565b9392505050565b7f523a704056dcd17bcf83bed8b68c59416dac1119be77755efe3bde0a64e46e0c610d0281336116aa565b8151610d1590600b9060208501906127ca565b507f6741b2fc379fad678116fe3d4d4b9a1a184ab53ba36b86ad0fa66340b1ab41ad82604051610d459190612907565b60405180910390a15050565b6000818152600260205260408120546001600160a01b03168061070e5760405162461bcd60e51b815260206004820152602960248201527f4552433732313a206f776e657220717565727920666f72206e6f6e657869737460448201527f656e7420746f6b656e0000000000000000000000000000000000000000000000606482015260840161081b565b600b805461097f90612d1b565b60006001600160a01b038216610e675760405162461bcd60e51b815260206004820152602a60248201527f4552433732313a2062616c616e636520717565727920666f7220746865207a6560448201527f726f206164647265737300000000000000000000000000000000000000000000606482015260840161081b565b506001600160a01b031660009081526003602052604090205490565b7f523a704056dcd17bcf83bed8b68c59416dac1119be77755efe3bde0a64e46e0c610eae81336116aa565b61096d83836118a4565b7f523a704056dcd17bcf83bed8b68c59416dac1119be77755efe3bde0a64e46e0c610ee381336116aa565b8151610ef690600c9060208501906127ca565b507f80ee62268f37acfc25ec039b3bdc164eb560c675d21e677b7452e1f34a56897a82604051610d459190612907565b60606001805461072390612d1b565b610bdd3383836118be565b6040805160608082018352600080835260208301529181019190915261070e8261184f565b610f6f33836113d2565b610fe15760405162461bcd60e51b815260206004820152603160248201527f4552433732313a207472616e736665722063616c6c6572206973206e6f74206f60448201527f776e6572206e6f7220617070726f766564000000000000000000000000000000606482015260840161081b565b610fed8484848461198d565b50505050565b6000610cd061ffff831663ffff0000601086901b16612d82565b6000818152600260205260409020546060906001600160a01b031661109a5760405162461bcd60e51b815260206004820152602f60248201527f4552433732314d657461646174613a2055524920717565727920666f72206e6f60448201527f6e6578697374656e7420746f6b656e0000000000000000000000000000000000606482015260840161081b565b600b8054601084901c916201ffff851691600091906110b890612d1b565b9050116110d45760405180602001604052806000815250611115565b600b6110e38361ffff16611a0b565b6110f08361ffff16611a0b565b600c6040516020016111059493929190612e34565b6040516020818303038152906040525b949350505050565b60606000600161112d8486612d82565b6111379190612e88565b905080600161114560085490565b61114f9190612e88565b101561116d57600161116060085490565b61116a9190612e88565b90505b60006111798583612e88565b611184906001612d82565b905060008167ffffffffffffffff8111156111a1576111a1612a0d565b6040519080825280602002602001820160405280156111ee57816020015b604080516060808201835260008083526020830152918101919091528152602001906001900390816111bf5790505b509050855b8381116112395761120b61120682610bfc565b61184f565b82828151811061121d5761121d612d56565b60200260200101819052508061123290612e9f565b90506111f3565b5095945050505050565b6000828152600a602052604090206001015461125f81336116aa565b61096d83836117cc565b6112728361131a565b6112be5760405162461bcd60e51b815260206004820152601360248201527f6e6f7420696e7369646520746865206772696400000000000000000000000000604482015260640161081b565b6113076112cb3385611b09565b83838080601f016020809104026020016040519081016040528093929190818152602001838380828437600092019190915250611b7092505050565b61131057600080fd5b61096d33846118a4565b600d54600090601083901c906201ffff84169061ffff9081169083161080156111155750600d5462010000900461ffff9081169116109392505050565b6000818152600460205260409020805473ffffffffffffffffffffffffffffffffffffffff19166001600160a01b038416908117909155819061139982610d51565b6001600160a01b03167f8c5be1e5ebec7d5bd14f71427d1e84f3dd0314c0f7b2291e5b200ac8c7c3b92560405160405180910390a45050565b6000818152600260205260408120546001600160a01b031661144b5760405162461bcd60e51b815260206004820152602c60248201527f4552433732313a206f70657261746f7220717565727920666f72206e6f6e657860448201526b34b9ba32b73a103a37b5b2b760a11b606482015260840161081b565b600061145683610d51565b9050806001600160a01b0316846001600160a01b031614806114915750836001600160a01b0316611486846107a6565b6001600160a01b0316145b8061111557506001600160a01b0380821660009081526005602090815260408083209388168352929052205460ff16611115565b826001600160a01b03166114d882610d51565b6001600160a01b0316146115545760405162461bcd60e51b815260206004820152602960248201527f4552433732313a207472616e73666572206f6620746f6b656e2074686174206960448201527f73206e6f74206f776e0000000000000000000000000000000000000000000000606482015260840161081b565b6001600160a01b0382166115cf5760405162461bcd60e51b8152602060048201526024808201527f4552433732313a207472616e7366657220746f20746865207a65726f2061646460448201527f7265737300000000000000000000000000000000000000000000000000000000606482015260840161081b565b6115da838383611ba0565b6115e5600082611357565b6001600160a01b038316600090815260036020526040812080546001929061160e908490612e88565b90915550506001600160a01b038216600090815260036020526040812080546001929061163c908490612d82565b9091555050600081815260026020526040808220805473ffffffffffffffffffffffffffffffffffffffff19166001600160a01b0386811691821790925591518493918716917fddf252ad1be2c89b69c2b068fc378daa952ba7f163c4a11628f55a4df523b3ef91a4505050565b6000828152600a602090815260408083206001600160a01b038516845290915290205460ff16610bdd576116e8816001600160a01b03166014611c58565b6116f3836020611c58565b604051602001611704929190612eba565b60408051601f198184030181529082905262461bcd60e51b825261081b91600401612907565b6000828152600a602090815260408083206001600160a01b038516845290915290205460ff16610bdd576000828152600a602090815260408083206001600160a01b03851684529091529020805460ff191660011790556117883390565b6001600160a01b0316816001600160a01b0316837f2f8788117e7eff1d82e926ec794901d17c78024a50270940304540a733656f0d60405160405180910390a45050565b6000828152600a602090815260408083206001600160a01b038516845290915290205460ff1615610bdd576000828152600a602090815260408083206001600160a01b0385168085529252808320805460ff1916905551339285917ff6391f5c32d9c69d2a47ea670b442974b53935d1edc7fd64eb21e047a839171b9190a45050565b60408051606080820183526000808352602083015291810191909152604051806060016040528083815260200161188584610d51565b6001600160a01b0316815260200161189c8461100d565b905292915050565b610bdd828260405180602001604052806000815250611e01565b816001600160a01b0316836001600160a01b031614156119205760405162461bcd60e51b815260206004820152601960248201527f4552433732313a20617070726f766520746f2063616c6c657200000000000000604482015260640161081b565b6001600160a01b03838116600081815260056020908152604080832094871680845294825291829020805460ff191686151590811790915591519182527f17307eab39ab6107e8899845ad3d59bd9653f200f220920489ca2b5937696c31910160405180910390a3505050565b6119988484846114c5565b6119a484848484611e7f565b610fed5760405162461bcd60e51b815260206004820152603260248201527f4552433732313a207472616e7366657220746f206e6f6e20455243373231526560448201527131b2b4bb32b91034b6b83632b6b2b73a32b960711b606482015260840161081b565b606081611a2f5750506040805180820190915260018152600360fc1b602082015290565b8160005b8115611a595780611a4381612e9f565b9150611a529050600a83612f51565b9150611a33565b60008167ffffffffffffffff811115611a7457611a74612a0d565b6040519080825280601f01601f191660200182016040528015611a9e576020820181803683370190505b5090505b841561111557611ab3600183612e88565b9150611ac0600a86612f65565b611acb906030612d82565b60f81b818381518110611ae057611ae0612d56565b60200101906001600160f81b031916908160001a905350611b02600a86612f51565b9450611aa2565b604080517f53830f36ae1afd5a27cb5c733cbb7d8e37f4180a90f2238fd1fc48909235dac760208201526001600160a01b0384169181019190915260608101829052600090610cd09060800160405160208183030381529060405280519060200120611fc8565b6000610cd07f523a704056dcd17bcf83bed8b68c59416dac1119be77755efe3bde0a64e46e0c6104b88585612031565b6001600160a01b038316611bfb57611bf681600880546000838152600960205260408120829055600182018355919091527ff3f7a9fe364faab93b216da50a3214154f22a0a2b415b23a84c8169e8b636ee30155565b611c1e565b816001600160a01b0316836001600160a01b031614611c1e57611c1e8382612055565b6001600160a01b038216611c355761096d816120f2565b826001600160a01b0316826001600160a01b03161461096d5761096d82826121a1565b60606000611c67836002612f79565b611c72906002612d82565b67ffffffffffffffff811115611c8a57611c8a612a0d565b6040519080825280601f01601f191660200182016040528015611cb4576020820181803683370190505b509050600360fc1b81600081518110611ccf57611ccf612d56565b60200101906001600160f81b031916908160001a905350600f60fb1b81600181518110611cfe57611cfe612d56565b60200101906001600160f81b031916908160001a9053506000611d22846002612f79565b611d2d906001612d82565b90505b6001811115611db2577f303132333435363738396162636465660000000000000000000000000000000085600f1660108110611d6e57611d6e612d56565b1a60f81b828281518110611d8457611d84612d56565b60200101906001600160f81b031916908160001a90535060049490941c93611dab81612f98565b9050611d30565b508315610cd05760405162461bcd60e51b815260206004820181905260248201527f537472696e67733a20686578206c656e67746820696e73756666696369656e74604482015260640161081b565b611e0b83836121e5565b611e186000848484611e7f565b61096d5760405162461bcd60e51b815260206004820152603260248201527f4552433732313a207472616e7366657220746f206e6f6e20455243373231526560448201527131b2b4bb32b91034b6b83632b6b2b73a32b960711b606482015260840161081b565b60006001600160a01b0384163b15611fbd57604051630a85bd0160e11b81526001600160a01b0385169063150b7a0290611ec3903390899088908890600401612faf565b6020604051808303816000875af1925050508015611efe575060408051601f3d908101601f19168201909252611efb91810190612feb565b60015b611fa3573d808015611f2c576040519150601f19603f3d011682016040523d82523d6000602084013e611f31565b606091505b508051611f9b5760405162461bcd60e51b815260206004820152603260248201527f4552433732313a207472616e7366657220746f206e6f6e20455243373231526560448201527131b2b4bb32b91034b6b83632b6b2b73a32b960711b606482015260840161081b565b805181602001fd5b6001600160e01b031916630a85bd0160e11b149050611115565b506001949350505050565b600061070e611fd5612340565b836040517f19010000000000000000000000000000000000000000000000000000000000006020820152602281018390526042810182905260009060620160405160208183030381529060405280519060200120905092915050565b60008060006120408585612467565b9150915061204d816124d7565b509392505050565b6000600161206284610de9565b61206c9190612e88565b6000838152600760205260409020549091508082146120bf576001600160a01b03841660009081526006602090815260408083208584528252808320548484528184208190558352600790915290208190555b5060009182526007602090815260408084208490556001600160a01b039094168352600681528383209183525290812055565b60085460009061210490600190612e88565b6000838152600960205260408120546008805493945090928490811061212c5761212c612d56565b90600052602060002001549050806008838154811061214d5761214d612d56565b600091825260208083209091019290925582815260099091526040808220849055858252812055600880548061218557612185613008565b6001900381819060005260206000200160009055905550505050565b60006121ac83610de9565b6001600160a01b039093166000908152600660209081526040808320868452825280832085905593825260079052919091209190915550565b6001600160a01b03821661223b5760405162461bcd60e51b815260206004820181905260248201527f4552433732313a206d696e7420746f20746865207a65726f2061646472657373604482015260640161081b565b6000818152600260205260409020546001600160a01b0316156122a05760405162461bcd60e51b815260206004820152601c60248201527f4552433732313a20746f6b656e20616c7265616479206d696e74656400000000604482015260640161081b565b6122ac60008383611ba0565b6001600160a01b03821660009081526003602052604081208054600192906122d5908490612d82565b9091555050600081815260026020526040808220805473ffffffffffffffffffffffffffffffffffffffff19166001600160a01b03861690811790915590518392907fddf252ad1be2c89b69c2b068fc378daa952ba7f163c4a11628f55a4df523b3ef908290a45050565b6000306001600160a01b037f00000000000000000000000000000000000000000000000000000000000000001614801561239957507f000000000000000000000000000000000000000000000000000000000000000046145b156123c357507f000000000000000000000000000000000000000000000000000000000000000090565b50604080517f00000000000000000000000000000000000000000000000000000000000000006020808301919091527f0000000000000000000000000000000000000000000000000000000000000000828401527f000000000000000000000000000000000000000000000000000000000000000060608301524660808301523060a0808401919091528351808403909101815260c0909201909252805191012090565b60008082516041141561249e5760208301516040840151606085015160001a61249287828585612695565b945094505050506124d0565b8251604014156124c857602083015160408401516124bd868383612782565b9350935050506124d0565b506000905060025b9250929050565b60008160048111156124eb576124eb61301e565b14156124f45750565b60018160048111156125085761250861301e565b14156125565760405162461bcd60e51b815260206004820152601860248201527f45434453413a20696e76616c6964207369676e61747572650000000000000000604482015260640161081b565b600281600481111561256a5761256a61301e565b14156125b85760405162461bcd60e51b815260206004820152601f60248201527f45434453413a20696e76616c6964207369676e6174757265206c656e67746800604482015260640161081b565b60038160048111156125cc576125cc61301e565b14156126255760405162461bcd60e51b815260206004820152602260248201527f45434453413a20696e76616c6964207369676e6174757265202773272076616c604482015261756560f01b606482015260840161081b565b60048160048111156126395761263961301e565b14156126925760405162461bcd60e51b815260206004820152602260248201527f45434453413a20696e76616c6964207369676e6174757265202776272076616c604482015261756560f01b606482015260840161081b565b50565b6000807f7fffffffffffffffffffffffffffffff5d576e7357a4501ddfe92f46681b20a08311156126cc5750600090506003612779565b8460ff16601b141580156126e457508460ff16601c14155b156126f55750600090506004612779565b6040805160008082526020820180845289905260ff881692820192909252606081018690526080810185905260019060a0016020604051602081039080840390855afa158015612749573d6000803e3d6000fd5b5050604051601f1901519150506001600160a01b03811661277257600060019250925050612779565b9150600090505b94509492505050565b6000807f7fffffffffffffffffffffffffffffffffffffffffffffffffffffffffffffff831660ff84901c601b016127bc87828885612695565b935093505050935093915050565b8280546127d690612d1b565b90600052602060002090601f0160209004810192826127f8576000855561283e565b82601f1061281157805160ff191683800117855561283e565b8280016001018555821561283e579182015b8281111561283e578251825591602001919060010190612823565b5061284a92915061284e565b5090565b5b8082111561284a576000815560010161284f565b60006020828403121561287557600080fd5b5035919050565b6001600160e01b03198116811461269257600080fd5b6000602082840312156128a457600080fd5b8135610cd08161287c565b60005b838110156128ca5781810151838201526020016128b2565b83811115610fed5750506000910152565b600081518084526128f38160208601602086016128af565b601f01601f19169290920160200192915050565b602081526000610cd060208301846128db565b80356001600160a01b038116811461293157600080fd5b919050565b6000806040838503121561294957600080fd5b6129528361291a565b946020939093013593505050565b60008060006060848603121561297557600080fd5b61297e8461291a565b925061298c6020850161291a565b9150604084013590509250925092565b600080604083850312156129af57600080fd5b823591506129bf6020840161291a565b90509250929050565b805182526001600160a01b036020820151166020830152600060408201516060604085015261111560608501826128db565b602081526000610cd060208301846129c8565b634e487b7160e01b600052604160045260246000fd5b600067ffffffffffffffff80841115612a3e57612a3e612a0d565b604051601f8501601f19908116603f01168101908282118183101715612a6657612a66612a0d565b81604052809350858152868686011115612a7f57600080fd5b858560208301376000602087830101525050509392505050565b600060208284031215612aab57600080fd5b813567ffffffffffffffff811115612ac257600080fd5b8201601f81018413612ad357600080fd5b61111584823560208401612a23565b600060208284031215612af457600080fd5b610cd08261291a565b60008060408385031215612b1057600080fd5b612b198361291a565b915060208301358015158114612b2e57600080fd5b809150509250929050565b60008060008060808587031215612b4f57600080fd5b612b588561291a565b9350612b666020860161291a565b925060408501359150606085013567ffffffffffffffff811115612b8957600080fd5b8501601f81018713612b9a57600080fd5b612ba987823560208401612a23565b91505092959194509250565b803561ffff8116811461293157600080fd5b60008060408385031215612bda57600080fd5b612be383612bb5565b91506129bf60208401612bb5565b60008060408385031215612c0457600080fd5b50508035926020909101359150565b6000602080830181845280855180835260408601915060408160051b870101925083870160005b82811015612c6857603f19888603018452612c568583516129c8565b94509285019290850190600101612c3a565b5092979650505050505050565b600080600060408486031215612c8a57600080fd5b83359250602084013567ffffffffffffffff80821115612ca957600080fd5b818601915086601f830112612cbd57600080fd5b813581811115612ccc57600080fd5b876020828501011115612cde57600080fd5b6020830194508093505050509250925092565b60008060408385031215612d0457600080fd5b612d0d8361291a565b91506129bf6020840161291a565b600181811c90821680612d2f57607f821691505b60208210811415612d5057634e487b7160e01b600052602260045260246000fd5b50919050565b634e487b7160e01b600052603260045260246000fd5b634e487b7160e01b600052601160045260246000fd5b60008219821115612d9557612d95612d6c565b500190565b8054600090600181811c9080831680612db457607f831692505b6020808410821415612dd657634e487b7160e01b600052602260045260246000fd5b818015612dea5760018114612dfb57612e28565b60ff19861689528489019650612e28565b60008881526020902060005b86811015612e205781548b820152908501908301612e07565b505084890196505b50505050505092915050565b6000612e408287612d9a565b8551612e50818360208a016128af565b600f60fb1b91019081528451612e6d8160018401602089016128af565b612e7c60018284010186612d9a565b98975050505050505050565b600082821015612e9a57612e9a612d6c565b500390565b6000600019821415612eb357612eb3612d6c565b5060010190565b7f416363657373436f6e74726f6c3a206163636f756e7420000000000000000000815260008351612ef28160178501602088016128af565b7f206973206d697373696e6720726f6c65200000000000000000000000000000006017918401918201528351612f2f8160288401602088016128af565b01602801949350505050565b634e487b7160e01b600052601260045260246000fd5b600082612f6057612f60612f3b565b500490565b600082612f7457612f74612f3b565b500690565b6000816000190483118215151615612f9357612f93612d6c565b500290565b600081612fa757612fa7612d6c565b506000190190565b60006001600160a01b03808716835280861660208401525083604083015260806060830152612fe160808301846128db565b9695505050505050565b600060208284031215612ffd57600080fd5b8151610cd08161287c565b634e487b7160e01b600052603160045260246000fd5b634e487b7160e01b600052602160045260246000fdfea26469706673582212205e262b47a5757f16c2246fe83aec2446501a8476c88b82c5a2805f9d5625d94c64736f6c634300080a0033",
  "devdoc": {
    "kind": "dev",
    "methods": {
      "approve(address,uint256)": {
        "details": "See {IERC721-approve}."
      },
      "balanceOf(address)": {
        "details": "See {IERC721-balanceOf}."
      },
      "constructor": {
        "params": {
          "_name": "NFT name",
          "_newBaseURI": "base URI to use for assets",
          "_newURISuffix": "URI suffix to use for assets",
          "_symbol": "NFT symbol"
        }
      },
      "getApproved(uint256)": {
        "details": "See {IERC721-getApproved}."
      },
      "getRoleAdmin(bytes32)": {
        "details": "Returns the admin role that controls `role`. See {grantRole} and {revokeRole}. To change a role's admin, use {_setRoleAdmin}."
      },
      "grantRole(bytes32,address)": {
        "details": "Grants `role` to `account`. If `account` had not been already granted `role`, emits a {RoleGranted} event. Requirements: - the caller must have ``role``'s admin role."
      },
      "hasRole(bytes32,address)": {
        "details": "Returns `true` if `account` has been granted `role`."
      },
      "isApprovedForAll(address,address)": {
        "details": "See {IERC721-isApprovedForAll}."
      },
      "name()": {
        "details": "See {IERC721Metadata-name}."
      },
      "ownerOf(uint256)": {
        "details": "See {IERC721-ownerOf}."
      },
      "redeem(uint256,bytes)": {
        "params": {
          "_sig": "EIP712 signature to validate",
          "_tokenId": "token ID to mint"
        }
      },
      "redeemFor(address,uint256)": {
        "params": {
          "_to": "Address of the recipient",
          "_tokenId": "token ID to mint"
        }
      },
      "renounceRole(bytes32,address)": {
        "details": "Revokes `role` from the calling account. Roles are often managed via {grantRole} and {revokeRole}: this function's purpose is to provide a mechanism for accounts to lose their privileges if they are compromised (such as when a trusted device is misplaced). If the calling account had been revoked `role`, emits a {RoleRevoked} event. Requirements: - the caller must be `account`."
      },
      "revokeRole(bytes32,address)": {
        "details": "Revokes `role` from `account`. If `account` had been granted `role`, emits a {RoleRevoked} event. Requirements: - the caller must have ``role``'s admin role."
      },
      "safeTransferFrom(address,address,uint256)": {
        "details": "See {IERC721-safeTransferFrom}."
      },
      "safeTransferFrom(address,address,uint256,bytes)": {
        "details": "See {IERC721-safeTransferFrom}."
      },
      "setApprovalForAll(address,bool)": {
        "details": "See {IERC721-setApprovalForAll}."
      },
      "setBaseURI(string)": {
        "params": {
          "_newBaseURI": "new base URI for the token"
        }
      },
      "setURISuffix(string)": {
        "params": {
          "_newURISuffix": "new URI suffix for the token"
        }
      },
      "symbol()": {
        "details": "See {IERC721Metadata-symbol}."
      },
      "tokenByIndex(uint256)": {
        "details": "See {IERC721Enumerable-tokenByIndex}."
      },
      "tokenData(uint256)": {
        "params": {
          "tokenId": "the token ID"
        },
        "returns": {
          "_0": "token data"
        }
      },
      "tokenDataByIndex(uint256)": {
        "params": {
          "idx": "token index"
        },
        "returns": {
          "_0": "token data"
        }
      },
      "tokenOfOwnerByIndex(address,uint256)": {
        "details": "See {IERC721Enumerable-tokenOfOwnerByIndex}."
      },
      "tokenURI(uint256)": {
        "details": "See {IERC721Metadata-tokenURI}."
      },
      "tokensDataByRange(uint256,uint256)": {
        "params": {
          "_from": "token index",
          "_max": "maximum amount of tokens to return"
        },
        "returns": {
          "_0": "a list of token IDs"
        }
      },
      "totalSupply()": {
        "details": "See {IERC721Enumerable-totalSupply}."
      },
      "transferFrom(address,address,uint256)": {
        "details": "See {IERC721-transferFrom}."
      }
    },
    "version": 1
  },
  "userdoc": {
    "events": {
      "BaseURIUpdated(string)": {
        "notice": "Emitted when the base URI changes"
      },
      "URISuffixUpdated(string)": {
        "notice": "Emitted when the URI suffix changes"
      }
    },
    "kind": "user",
    "methods": {
      "OPERATOR_ROLE()": {
        "notice": "Role with permissions to set metadata and URIs"
      },
      "URISuffix()": {
        "notice": "Suffix for the URI of all NFTs;"
      },
      "baseURI()": {
        "notice": "Base URI for all NFTs"
      },
      "redeem(uint256,bytes)": {
        "notice": "Mints a new NFT"
      },
      "redeemFor(address,uint256)": {
        "notice": "Mints a new NFT on behalf of an accountOnly callable by an approved operator"
      },
      "setBaseURI(string)": {
        "notice": "Updates the base URIOnly callable by an authorized operator"
      },
      "setURISuffix(string)": {
        "notice": "Updates the URI suffixOnly callable by an authorized operator"
      },
      "tokenData(uint256)": {
        "notice": "Returns info for a token based on his ID"
      },
      "tokenDataByIndex(uint256)": {
        "notice": "Returns info for a token based on his enumerable index"
      },
      "tokensDataByRange(uint256,uint256)": {
        "notice": "Returns a limited list of token indexes from the enumerable set"
      }
    },
    "notice": "An NFT representing the Subvisual Universe",
    "version": 1
  },
  "storageLayout": {
    "storage": [
      {
        "astId": 407,
        "contract": "contracts/SubvisualUniverseNFT.sol:SubvisualUniverseNFT",
        "label": "_name",
        "offset": 0,
        "slot": "0",
        "type": "t_string_storage"
      },
      {
        "astId": 409,
        "contract": "contracts/SubvisualUniverseNFT.sol:SubvisualUniverseNFT",
        "label": "_symbol",
        "offset": 0,
        "slot": "1",
        "type": "t_string_storage"
      },
      {
        "astId": 413,
        "contract": "contracts/SubvisualUniverseNFT.sol:SubvisualUniverseNFT",
        "label": "_owners",
        "offset": 0,
        "slot": "2",
        "type": "t_mapping(t_uint256,t_address)"
      },
      {
        "astId": 417,
        "contract": "contracts/SubvisualUniverseNFT.sol:SubvisualUniverseNFT",
        "label": "_balances",
        "offset": 0,
        "slot": "3",
        "type": "t_mapping(t_address,t_uint256)"
      },
      {
        "astId": 421,
        "contract": "contracts/SubvisualUniverseNFT.sol:SubvisualUniverseNFT",
        "label": "_tokenApprovals",
        "offset": 0,
        "slot": "4",
        "type": "t_mapping(t_uint256,t_address)"
      },
      {
        "astId": 427,
        "contract": "contracts/SubvisualUniverseNFT.sol:SubvisualUniverseNFT",
        "label": "_operatorApprovals",
        "offset": 0,
        "slot": "5",
        "type": "t_mapping(t_address,t_mapping(t_address,t_bool))"
      },
      {
        "astId": 1361,
        "contract": "contracts/SubvisualUniverseNFT.sol:SubvisualUniverseNFT",
        "label": "_ownedTokens",
        "offset": 0,
        "slot": "6",
        "type": "t_mapping(t_address,t_mapping(t_uint256,t_uint256))"
      },
      {
        "astId": 1365,
        "contract": "contracts/SubvisualUniverseNFT.sol:SubvisualUniverseNFT",
        "label": "_ownedTokensIndex",
        "offset": 0,
        "slot": "7",
        "type": "t_mapping(t_uint256,t_uint256)"
      },
      {
        "astId": 1368,
        "contract": "contracts/SubvisualUniverseNFT.sol:SubvisualUniverseNFT",
        "label": "_allTokens",
        "offset": 0,
        "slot": "8",
        "type": "t_array(t_uint256)dyn_storage"
      },
      {
        "astId": 1372,
        "contract": "contracts/SubvisualUniverseNFT.sol:SubvisualUniverseNFT",
        "label": "_allTokensIndex",
        "offset": 0,
        "slot": "9",
        "type": "t_mapping(t_uint256,t_uint256)"
      },
      {
        "astId": 24,
        "contract": "contracts/SubvisualUniverseNFT.sol:SubvisualUniverseNFT",
        "label": "_roles",
        "offset": 0,
        "slot": "10",
        "type": "t_mapping(t_bytes32,t_struct(RoleData)19_storage)"
      },
      {
        "astId": 2894,
        "contract": "contracts/SubvisualUniverseNFT.sol:SubvisualUniverseNFT",
        "label": "baseURI",
        "offset": 0,
        "slot": "11",
        "type": "t_string_storage"
      },
      {
        "astId": 2897,
        "contract": "contracts/SubvisualUniverseNFT.sol:SubvisualUniverseNFT",
        "label": "URISuffix",
        "offset": 0,
        "slot": "12",
        "type": "t_string_storage"
      },
      {
        "astId": 2899,
        "contract": "contracts/SubvisualUniverseNFT.sol:SubvisualUniverseNFT",
        "label": "width",
        "offset": 0,
        "slot": "13",
        "type": "t_uint16"
      },
      {
        "astId": 2901,
        "contract": "contracts/SubvisualUniverseNFT.sol:SubvisualUniverseNFT",
        "label": "height",
        "offset": 2,
        "slot": "13",
        "type": "t_uint16"
      }
    ],
    "types": {
      "t_address": {
        "encoding": "inplace",
        "label": "address",
        "numberOfBytes": "20"
      },
      "t_array(t_uint256)dyn_storage": {
        "base": "t_uint256",
        "encoding": "dynamic_array",
        "label": "uint256[]",
        "numberOfBytes": "32"
      },
      "t_bool": {
        "encoding": "inplace",
        "label": "bool",
        "numberOfBytes": "1"
      },
      "t_bytes32": {
        "encoding": "inplace",
        "label": "bytes32",
        "numberOfBytes": "32"
      },
      "t_mapping(t_address,t_bool)": {
        "encoding": "mapping",
        "key": "t_address",
        "label": "mapping(address => bool)",
        "numberOfBytes": "32",
        "value": "t_bool"
      },
      "t_mapping(t_address,t_mapping(t_address,t_bool))": {
        "encoding": "mapping",
        "key": "t_address",
        "label": "mapping(address => mapping(address => bool))",
        "numberOfBytes": "32",
        "value": "t_mapping(t_address,t_bool)"
      },
      "t_mapping(t_address,t_mapping(t_uint256,t_uint256))": {
        "encoding": "mapping",
        "key": "t_address",
        "label": "mapping(address => mapping(uint256 => uint256))",
        "numberOfBytes": "32",
        "value": "t_mapping(t_uint256,t_uint256)"
      },
      "t_mapping(t_address,t_uint256)": {
        "encoding": "mapping",
        "key": "t_address",
        "label": "mapping(address => uint256)",
        "numberOfBytes": "32",
        "value": "t_uint256"
      },
      "t_mapping(t_bytes32,t_struct(RoleData)19_storage)": {
        "encoding": "mapping",
        "key": "t_bytes32",
        "label": "mapping(bytes32 => struct AccessControl.RoleData)",
        "numberOfBytes": "32",
        "value": "t_struct(RoleData)19_storage"
      },
      "t_mapping(t_uint256,t_address)": {
        "encoding": "mapping",
        "key": "t_uint256",
        "label": "mapping(uint256 => address)",
        "numberOfBytes": "32",
        "value": "t_address"
      },
      "t_mapping(t_uint256,t_uint256)": {
        "encoding": "mapping",
        "key": "t_uint256",
        "label": "mapping(uint256 => uint256)",
        "numberOfBytes": "32",
        "value": "t_uint256"
      },
      "t_string_storage": {
        "encoding": "bytes",
        "label": "string",
        "numberOfBytes": "32"
      },
      "t_struct(RoleData)19_storage": {
        "encoding": "inplace",
        "label": "struct AccessControl.RoleData",
        "members": [
          {
            "astId": 16,
            "contract": "contracts/SubvisualUniverseNFT.sol:SubvisualUniverseNFT",
            "label": "members",
            "offset": 0,
            "slot": "0",
            "type": "t_mapping(t_address,t_bool)"
          },
          {
            "astId": 18,
            "contract": "contracts/SubvisualUniverseNFT.sol:SubvisualUniverseNFT",
            "label": "adminRole",
            "offset": 0,
            "slot": "1",
            "type": "t_bytes32"
          }
        ],
        "numberOfBytes": "64"
      },
      "t_uint16": {
        "encoding": "inplace",
        "label": "uint16",
        "numberOfBytes": "2"
      },
      "t_uint256": {
        "encoding": "inplace",
        "label": "uint256",
        "numberOfBytes": "32"
      }
    }
  }
}