{
  "address": "0x91b72467CFB9Bb79697AD58DBfcbd7dA8E4B65DA",
  "abi": [
    {
      "inputs": [
        {
          "internalType": "string",
          "name": "_name",
          "type": "string"
        },
        {
          "internalType": "string",
          "name": "_symbol",
          "type": "string"
        },
        {
          "internalType": "string",
          "name": "_newBaseURI",
          "type": "string"
        }
      ],
      "stateMutability": "nonpayable",
      "type": "constructor"
    },
    {
      "anonymous": false,
      "inputs": [
        {
          "indexed": true,
          "internalType": "address",
          "name": "owner",
          "type": "address"
        },
        {
          "indexed": true,
          "internalType": "address",
          "name": "approved",
          "type": "address"
        },
        {
          "indexed": true,
          "internalType": "uint256",
          "name": "tokenId",
          "type": "uint256"
        }
      ],
      "name": "Approval",
      "type": "event"
    },
    {
      "anonymous": false,
      "inputs": [
        {
          "indexed": true,
          "internalType": "address",
          "name": "owner",
          "type": "address"
        },
        {
          "indexed": true,
          "internalType": "address",
          "name": "operator",
          "type": "address"
        },
        {
          "indexed": false,
          "internalType": "bool",
          "name": "approved",
          "type": "bool"
        }
      ],
      "name": "ApprovalForAll",
      "type": "event"
    },
    {
      "anonymous": false,
      "inputs": [
        {
          "indexed": false,
          "internalType": "string",
          "name": "newBaseURI",
          "type": "string"
        }
      ],
      "name": "BaseURIUpdated",
      "type": "event"
    },
    {
      "anonymous": false,
      "inputs": [
        {
          "indexed": true,
          "internalType": "bytes32",
          "name": "role",
          "type": "bytes32"
        },
        {
          "indexed": true,
          "internalType": "bytes32",
          "name": "previousAdminRole",
          "type": "bytes32"
        },
        {
          "indexed": true,
          "internalType": "bytes32",
          "name": "newAdminRole",
          "type": "bytes32"
        }
      ],
      "name": "RoleAdminChanged",
      "type": "event"
    },
    {
      "anonymous": false,
      "inputs": [
        {
          "indexed": true,
          "internalType": "bytes32",
          "name": "role",
          "type": "bytes32"
        },
        {
          "indexed": true,
          "internalType": "address",
          "name": "account",
          "type": "address"
        },
        {
          "indexed": true,
          "internalType": "address",
          "name": "sender",
          "type": "address"
        }
      ],
      "name": "RoleGranted",
      "type": "event"
    },
    {
      "anonymous": false,
      "inputs": [
        {
          "indexed": true,
          "internalType": "bytes32",
          "name": "role",
          "type": "bytes32"
        },
        {
          "indexed": true,
          "internalType": "address",
          "name": "account",
          "type": "address"
        },
        {
          "indexed": true,
          "internalType": "address",
          "name": "sender",
          "type": "address"
        }
      ],
      "name": "RoleRevoked",
      "type": "event"
    },
    {
      "anonymous": false,
      "inputs": [
        {
          "indexed": true,
          "internalType": "address",
          "name": "from",
          "type": "address"
        },
        {
          "indexed": true,
          "internalType": "address",
          "name": "to",
          "type": "address"
        },
        {
          "indexed": true,
          "internalType": "uint256",
          "name": "tokenId",
          "type": "uint256"
        }
      ],
      "name": "Transfer",
      "type": "event"
    },
    {
      "inputs": [],
      "name": "DEFAULT_ADMIN_ROLE",
      "outputs": [
        {
          "internalType": "bytes32",
          "name": "",
          "type": "bytes32"
        }
      ],
      "stateMutability": "view",
      "type": "function"
    },
    {
      "inputs": [],
      "name": "MINT_TYPEHASH",
      "outputs": [
        {
          "internalType": "bytes32",
          "name": "",
          "type": "bytes32"
        }
      ],
      "stateMutability": "view",
      "type": "function"
    },
    {
      "inputs": [],
      "name": "OPERATOR_ROLE",
      "outputs": [
        {
          "internalType": "bytes32",
          "name": "",
          "type": "bytes32"
        }
      ],
      "stateMutability": "view",
      "type": "function"
    },
    {
      "inputs": [
        {
          "internalType": "address",
          "name": "to",
          "type": "address"
        },
        {
          "internalType": "uint256",
          "name": "tokenId",
          "type": "uint256"
        }
      ],
      "name": "approve",
      "outputs": [],
      "stateMutability": "nonpayable",
      "type": "function"
    },
    {
      "inputs": [
        {
          "internalType": "address",
          "name": "owner",
          "type": "address"
        }
      ],
      "name": "balanceOf",
      "outputs": [
        {
          "internalType": "uint256",
          "name": "",
          "type": "uint256"
        }
      ],
      "stateMutability": "view",
      "type": "function"
    },
    {
      "inputs": [],
      "name": "baseURI",
      "outputs": [
        {
          "internalType": "string",
          "name": "",
          "type": "string"
        }
      ],
      "stateMutability": "view",
      "type": "function"
    },
    {
      "inputs": [
        {
          "internalType": "uint32",
          "name": "x",
          "type": "uint32"
        },
        {
          "internalType": "uint32",
          "name": "y",
          "type": "uint32"
        }
      ],
      "name": "coordsToId",
      "outputs": [
        {
          "internalType": "uint256",
          "name": "",
          "type": "uint256"
        }
      ],
      "stateMutability": "pure",
      "type": "function"
    },
    {
      "inputs": [
        {
          "internalType": "uint256",
          "name": "tokenId",
          "type": "uint256"
        }
      ],
      "name": "getApproved",
      "outputs": [
        {
          "internalType": "address",
          "name": "",
          "type": "address"
        }
      ],
      "stateMutability": "view",
      "type": "function"
    },
    {
      "inputs": [
        {
          "internalType": "bytes32",
          "name": "role",
          "type": "bytes32"
        }
      ],
      "name": "getRoleAdmin",
      "outputs": [
        {
          "internalType": "bytes32",
          "name": "",
          "type": "bytes32"
        }
      ],
      "stateMutability": "view",
      "type": "function"
    },
    {
      "inputs": [
        {
          "internalType": "bytes32",
          "name": "role",
          "type": "bytes32"
        },
        {
          "internalType": "address",
          "name": "account",
          "type": "address"
        }
      ],
      "name": "grantRole",
      "outputs": [],
      "stateMutability": "nonpayable",
      "type": "function"
    },
    {
      "inputs": [],
      "name": "gridHheight",
      "outputs": [
        {
          "internalType": "uint32",
          "name": "",
          "type": "uint32"
        }
      ],
      "stateMutability": "view",
      "type": "function"
    },
    {
      "inputs": [],
      "name": "gridWidth",
      "outputs": [
        {
          "internalType": "uint32",
          "name": "",
          "type": "uint32"
        }
      ],
      "stateMutability": "view",
      "type": "function"
    },
    {
      "inputs": [
        {
          "internalType": "bytes32",
          "name": "role",
          "type": "bytes32"
        },
        {
          "internalType": "address",
          "name": "account",
          "type": "address"
        }
      ],
      "name": "hasRole",
      "outputs": [
        {
          "internalType": "bool",
          "name": "",
          "type": "bool"
        }
      ],
      "stateMutability": "view",
      "type": "function"
    },
    {
      "inputs": [
        {
          "internalType": "uint256",
          "name": "id",
          "type": "uint256"
        }
      ],
      "name": "idToCoords",
      "outputs": [
        {
          "internalType": "uint32",
          "name": "x",
          "type": "uint32"
        },
        {
          "internalType": "uint32",
          "name": "y",
          "type": "uint32"
        }
      ],
      "stateMutability": "pure",
      "type": "function"
    },
    {
      "inputs": [
        {
          "internalType": "address",
          "name": "owner",
          "type": "address"
        },
        {
          "internalType": "address",
          "name": "operator",
          "type": "address"
        }
      ],
      "name": "isApprovedForAll",
      "outputs": [
        {
          "internalType": "bool",
          "name": "",
          "type": "bool"
        }
      ],
      "stateMutability": "view",
      "type": "function"
    },
    {
      "inputs": [],
      "name": "name",
      "outputs": [
        {
          "internalType": "string",
          "name": "",
          "type": "string"
        }
      ],
      "stateMutability": "view",
      "type": "function"
    },
    {
      "inputs": [
        {
          "internalType": "uint256",
          "name": "tokenId",
          "type": "uint256"
        }
      ],
      "name": "ownerOf",
      "outputs": [
        {
          "internalType": "address",
          "name": "",
          "type": "address"
        }
      ],
      "stateMutability": "view",
      "type": "function"
    },
    {
      "inputs": [
        {
          "internalType": "uint256",
          "name": "_tokenId",
          "type": "uint256"
        },
        {
          "internalType": "bytes",
          "name": "_sig",
          "type": "bytes"
        }
      ],
      "name": "redeem",
      "outputs": [],
      "stateMutability": "nonpayable",
      "type": "function"
    },
    {
      "inputs": [
        {
          "internalType": "address",
          "name": "_to",
          "type": "address"
        },
        {
          "internalType": "uint256",
          "name": "_tokenId",
          "type": "uint256"
        }
      ],
      "name": "redeemFor",
      "outputs": [],
      "stateMutability": "nonpayable",
      "type": "function"
    },
    {
      "inputs": [
        {
          "internalType": "bytes32",
          "name": "role",
          "type": "bytes32"
        },
        {
          "internalType": "address",
          "name": "account",
          "type": "address"
        }
      ],
      "name": "renounceRole",
      "outputs": [],
      "stateMutability": "nonpayable",
      "type": "function"
    },
    {
      "inputs": [
        {
          "internalType": "bytes32",
          "name": "role",
          "type": "bytes32"
        },
        {
          "internalType": "address",
          "name": "account",
          "type": "address"
        }
      ],
      "name": "revokeRole",
      "outputs": [],
      "stateMutability": "nonpayable",
      "type": "function"
    },
    {
      "inputs": [
        {
          "internalType": "address",
          "name": "from",
          "type": "address"
        },
        {
          "internalType": "address",
          "name": "to",
          "type": "address"
        },
        {
          "internalType": "uint256",
          "name": "tokenId",
          "type": "uint256"
        }
      ],
      "name": "safeTransferFrom",
      "outputs": [],
      "stateMutability": "nonpayable",
      "type": "function"
    },
    {
      "inputs": [
        {
          "internalType": "address",
          "name": "from",
          "type": "address"
        },
        {
          "internalType": "address",
          "name": "to",
          "type": "address"
        },
        {
          "internalType": "uint256",
          "name": "tokenId",
          "type": "uint256"
        },
        {
          "internalType": "bytes",
          "name": "_data",
          "type": "bytes"
        }
      ],
      "name": "safeTransferFrom",
      "outputs": [],
      "stateMutability": "nonpayable",
      "type": "function"
    },
    {
      "inputs": [
        {
          "internalType": "address",
          "name": "operator",
          "type": "address"
        },
        {
          "internalType": "bool",
          "name": "approved",
          "type": "bool"
        }
      ],
      "name": "setApprovalForAll",
      "outputs": [],
      "stateMutability": "nonpayable",
      "type": "function"
    },
    {
      "inputs": [
        {
          "internalType": "string",
          "name": "_newBaseURI",
          "type": "string"
        }
      ],
      "name": "setBaseURI",
      "outputs": [],
      "stateMutability": "nonpayable",
      "type": "function"
    },
    {
      "inputs": [
        {
          "internalType": "bytes4",
          "name": "interfaceId",
          "type": "bytes4"
        }
      ],
      "name": "supportsInterface",
      "outputs": [
        {
          "internalType": "bool",
          "name": "",
          "type": "bool"
        }
      ],
      "stateMutability": "view",
      "type": "function"
    },
    {
      "inputs": [],
      "name": "symbol",
      "outputs": [
        {
          "internalType": "string",
          "name": "",
          "type": "string"
        }
      ],
      "stateMutability": "view",
      "type": "function"
    },
    {
      "inputs": [
        {
          "internalType": "uint256",
          "name": "index",
          "type": "uint256"
        }
      ],
      "name": "tokenByIndex",
      "outputs": [
        {
          "internalType": "uint256",
          "name": "",
          "type": "uint256"
        }
      ],
      "stateMutability": "view",
      "type": "function"
    },
    {
      "inputs": [
        {
          "internalType": "address",
          "name": "owner",
          "type": "address"
        },
        {
          "internalType": "uint256",
          "name": "index",
          "type": "uint256"
        }
      ],
      "name": "tokenOfOwnerByIndex",
      "outputs": [
        {
          "internalType": "uint256",
          "name": "",
          "type": "uint256"
        }
      ],
      "stateMutability": "view",
      "type": "function"
    },
    {
      "inputs": [
        {
          "internalType": "uint256",
          "name": "tokenId",
          "type": "uint256"
        }
      ],
      "name": "tokenURI",
      "outputs": [
        {
          "internalType": "string",
          "name": "",
          "type": "string"
        }
      ],
      "stateMutability": "view",
      "type": "function"
    },
    {
      "inputs": [],
      "name": "totalSupply",
      "outputs": [
        {
          "internalType": "uint256",
          "name": "",
          "type": "uint256"
        }
      ],
      "stateMutability": "view",
      "type": "function"
    },
    {
      "inputs": [
        {
          "internalType": "address",
          "name": "from",
          "type": "address"
        },
        {
          "internalType": "address",
          "name": "to",
          "type": "address"
        },
        {
          "internalType": "uint256",
          "name": "tokenId",
          "type": "uint256"
        }
      ],
      "name": "transferFrom",
      "outputs": [],
      "stateMutability": "nonpayable",
      "type": "function"
    }
  ],
  "transactionHash": "0x8de616ed9ed092882604e88eca55fdf475442c3a574e9a4cf0b24cba4ecf820e",
  "args": [
    "Subvisual Universe NFT",
    "SV-UNI",
    "https://nft.subvisual.com/"
  ],
  "solcInputHash": "59055975b2423fbf1d459d3157283d3c",
  "bytecode": "0x6101406040523480156200001257600080fd5b5060405162003043380380620030438339810160408190526200003591620003db565b82604051806040016040528060058152602001640312e302e360dc1b815250848481600090805190602001906200006e9291906200025b565b508051620000849060019060208401906200025b565b5050825160209384012082519284019290922060e08390526101008190524660a0818152604080517f8b73c3c69bb8fe3d512ecc4cf759cc79239f7b179b0ffacaa9a75d522b39400f818901819052818301979097526060810194909452608080850193909352308483018190528151808603909301835260c094850190915281519190960120905292909252610120525062000123600033620001a7565b6200014f7f523a704056dcd17bcf83bed8b68c59416dac1119be77755efe3bde0a64e46e0c33620001a7565b80516200016490600b9060208401906200025b565b507f6741b2fc379fad678116fe3d4d4b9a1a184ab53ba36b86ad0fa66340b1ab41ad816040516200019691906200046c565b60405180910390a1505050620004de565b620001b38282620001b7565b5050565b6000828152600a602090815260408083206001600160a01b038516845290915290205460ff16620001b3576000828152600a602090815260408083206001600160a01b03851684529091529020805460ff19166001179055620002173390565b6001600160a01b0316816001600160a01b0316837f2f8788117e7eff1d82e926ec794901d17c78024a50270940304540a733656f0d60405160405180910390a45050565b8280546200026990620004a1565b90600052602060002090601f0160209004810192826200028d5760008555620002d8565b82601f10620002a857805160ff1916838001178555620002d8565b82800160010185558215620002d8579182015b82811115620002d8578251825591602001919060010190620002bb565b50620002e6929150620002ea565b5090565b5b80821115620002e65760008155600101620002eb565b634e487b7160e01b600052604160045260246000fd5b60005b83811015620003345781810151838201526020016200031a565b8381111562000344576000848401525b50505050565b600082601f8301126200035c57600080fd5b81516001600160401b038082111562000379576200037962000301565b604051601f8301601f19908116603f01168101908282118183101715620003a457620003a462000301565b81604052838152866020858801011115620003be57600080fd5b620003d184602083016020890162000317565b9695505050505050565b600080600060608486031215620003f157600080fd5b83516001600160401b03808211156200040957600080fd5b62000417878388016200034a565b945060208601519150808211156200042e57600080fd5b6200043c878388016200034a565b935060408601519150808211156200045357600080fd5b5062000462868287016200034a565b9150509250925092565b60208152600082518060208401526200048d81604085016020870162000317565b601f01601f19169190910160400192915050565b600181811c90821680620004b657607f821691505b60208210811415620004d857634e487b7160e01b600052602260045260246000fd5b50919050565b60805160a05160c05160e0516101005161012051612b156200052e6000396000611ffb0152600061204a0152600061202501526000611f7e01526000611fa801526000611fd20152612b156000f3fe608060405234801561001057600080fd5b50600436106101f05760003560e01c80636c0360eb1161010f578063b8b86326116100a2578063e77c646d11610071578063e77c646d1461049b578063e985e9c5146104ae578063f5b541a6146104ea578063f76fc35e1461051157600080fd5b8063b8b863261461044a578063c87b56dd1461045d578063d15344d114610470578063d547741f1461048857600080fd5b806395d89b41116100de57806395d89b4114610414578063a217fddf1461041c578063a22cb46514610424578063b88d4fde1461043757600080fd5b80636c0360eb146103ad57806370a08231146103b55780637a82a198146103c857806391d14854146103db57600080fd5b80632f2ff15d1161018757806342842e0e1161015657806342842e0e146103615780634f6ccce71461037457806355f804b3146103875780636352211e1461039a57600080fd5b80632f2ff15d146103035780632f745c591461031657806336568abe1461032957806338b145df1461033c57600080fd5b8063095ea7b3116101c3578063095ea7b3146102a657806318160ddd146102bb57806323b872dd146102cd578063248a9ca3146102e057600080fd5b806301dacdbe146101f557806301ffc9a71461024357806306fdde0314610266578063081812fc1461027b575b600080fd5b610221610203366004612494565b608081901c917001ffffffffffffffffffffffffffffffff90911690565b6040805163ffffffff9384168152929091166020830152015b60405180910390f35b6102566102513660046124c3565b610538565b604051901515815260200161023a565b61026e610609565b60405161023a9190612538565b61028e610289366004612494565b61069b565b6040516001600160a01b03909116815260200161023a565b6102b96102b4366004612567565b610735565b005b6008545b60405190815260200161023a565b6102b96102db366004612591565b610867565b6102bf6102ee366004612494565b6000908152600a602052604090206001015490565b6102b96103113660046125cd565b6108ee565b6102bf610324366004612567565b610914565b6102b96103373660046125cd565b6109bc565b600c5461034c9063ffffffff1681565b60405163ffffffff909116815260200161023a565b6102b961036f366004612591565b610a48565b6102bf610382366004612494565b610a63565b6102b9610395366004612685565b610b07565b61028e6103a8366004612494565b610b81565b61026e610c0c565b6102bf6103c33660046126ce565b610c9a565b6102b96103d6366004612567565b610d34565b6102566103e93660046125cd565b6000918252600a602090815260408084206001600160a01b0393909316845291905290205460ff1690565b61026e610d69565b6102bf600081565b6102b96104323660046126e9565b610d78565b6102b9610445366004612725565b610d83565b6102bf6104583660046127b5565b610e11565b61026e61046b366004612494565b610e44565b600c5461034c90640100000000900463ffffffff1681565b6102b96104963660046125cd565b610f2c565b6102b96104a93660046127df565b610f52565b6102566104bc36600461285b565b6001600160a01b03918216600090815260056020908152604080832093909416825291909152205460ff1690565b6102bf7f523a704056dcd17bcf83bed8b68c59416dac1119be77755efe3bde0a64e46e0c81565b6102bf7f53830f36ae1afd5a27cb5c733cbb7d8e37f4180a90f2238fd1fc48909235dac781565b60006001600160e01b031982167f80ac58cd00000000000000000000000000000000000000000000000000000000148061059b57506001600160e01b031982167f780e9d6300000000000000000000000000000000000000000000000000000000145b806105cf57506001600160e01b031982167f5b5e139f00000000000000000000000000000000000000000000000000000000145b8061060357506001600160e01b031982167f7965db0b00000000000000000000000000000000000000000000000000000000145b92915050565b60606000805461061890612885565b80601f016020809104026020016040519081016040528092919081815260200182805461064490612885565b80156106915780601f1061066657610100808354040283529160200191610691565b820191906000526020600020905b81548152906001019060200180831161067457829003601f168201915b5050505050905090565b6000818152600260205260408120546001600160a01b03166107195760405162461bcd60e51b815260206004820152602c60248201527f4552433732313a20617070726f76656420717565727920666f72206e6f6e657860448201526b34b9ba32b73a103a37b5b2b760a11b60648201526084015b60405180910390fd5b506000908152600460205260409020546001600160a01b031690565b600061074082610b81565b9050806001600160a01b0316836001600160a01b031614156107ca5760405162461bcd60e51b815260206004820152602160248201527f4552433732313a20617070726f76616c20746f2063757272656e74206f776e6560448201527f72000000000000000000000000000000000000000000000000000000000000006064820152608401610710565b336001600160a01b03821614806107e657506107e681336104bc565b6108585760405162461bcd60e51b815260206004820152603860248201527f4552433732313a20617070726f76652063616c6c6572206973206e6f74206f7760448201527f6e6572206e6f7220617070726f76656420666f7220616c6c00000000000000006064820152608401610710565b6108628383610fae565b505050565b6108713382611029565b6108e35760405162461bcd60e51b815260206004820152603160248201527f4552433732313a207472616e736665722063616c6c6572206973206e6f74206f60448201527f776e6572206e6f7220617070726f7665640000000000000000000000000000006064820152608401610710565b610862838383611120565b6000828152600a602052604090206001015461090a8133611305565b6108628383611385565b600061091f83610c9a565b82106109935760405162461bcd60e51b815260206004820152602b60248201527f455243373231456e756d657261626c653a206f776e657220696e646578206f7560448201527f74206f6620626f756e64730000000000000000000000000000000000000000006064820152608401610710565b506001600160a01b03919091166000908152600660209081526040808320938352929052205490565b6001600160a01b0381163314610a3a5760405162461bcd60e51b815260206004820152602f60248201527f416363657373436f6e74726f6c3a2063616e206f6e6c792072656e6f756e636560448201527f20726f6c657320666f722073656c6600000000000000000000000000000000006064820152608401610710565b610a448282611427565b5050565b61086283838360405180602001604052806000815250610d83565b6000610a6e60085490565b8210610ae25760405162461bcd60e51b815260206004820152602c60248201527f455243373231456e756d657261626c653a20676c6f62616c20696e646578206f60448201527f7574206f6620626f756e647300000000000000000000000000000000000000006064820152608401610710565b60088281548110610af557610af56128c0565b90600052602060002001549050919050565b7f523a704056dcd17bcf83bed8b68c59416dac1119be77755efe3bde0a64e46e0c610b328133611305565b8151610b4590600b9060208501906123fb565b507f6741b2fc379fad678116fe3d4d4b9a1a184ab53ba36b86ad0fa66340b1ab41ad82604051610b759190612538565b60405180910390a15050565b6000818152600260205260408120546001600160a01b0316806106035760405162461bcd60e51b815260206004820152602960248201527f4552433732313a206f776e657220717565727920666f72206e6f6e657869737460448201527f656e7420746f6b656e00000000000000000000000000000000000000000000006064820152608401610710565b600b8054610c1990612885565b80601f0160208091040260200160405190810160405280929190818152602001828054610c4590612885565b8015610c925780601f10610c6757610100808354040283529160200191610c92565b820191906000526020600020905b815481529060010190602001808311610c7557829003601f168201915b505050505081565b60006001600160a01b038216610d185760405162461bcd60e51b815260206004820152602a60248201527f4552433732313a2062616c616e636520717565727920666f7220746865207a6560448201527f726f2061646472657373000000000000000000000000000000000000000000006064820152608401610710565b506001600160a01b031660009081526003602052604090205490565b7f523a704056dcd17bcf83bed8b68c59416dac1119be77755efe3bde0a64e46e0c610d5f8133611305565b61086283836114aa565b60606001805461061890612885565b610a443383836114c4565b610d8d3383611029565b610dff5760405162461bcd60e51b815260206004820152603160248201527f4552433732313a207472616e736665722063616c6c6572206973206e6f74206f60448201527f776e6572206e6f7220617070726f7665640000000000000000000000000000006064820152608401610710565b610e0b84848484611593565b50505050565b6000610e3d63ffffffff831673ffffffff00000000000000000000000000000000608086901b166128ec565b9392505050565b6000818152600260205260409020546060906001600160a01b0316610ed15760405162461bcd60e51b815260206004820152602f60248201527f4552433732314d657461646174613a2055524920717565727920666f72206e6f60448201527f6e6578697374656e7420746f6b656e00000000000000000000000000000000006064820152608401610710565b6000610edb611611565b90506000815111610efb5760405180602001604052806000815250610e3d565b80610f0584611620565b604051602001610f16929190612904565b6040516020818303038152906040529392505050565b6000828152600a6020526040902060010154610f488133611305565b6108628383611427565b610f9b610f5f338561171e565b83838080601f01602080910402602001604051908101604052809392919081815260200183838082843760009201919091525061178592505050565b610fa457600080fd5b61086233846114aa565b6000818152600460205260409020805473ffffffffffffffffffffffffffffffffffffffff19166001600160a01b0384169081179091558190610ff082610b81565b6001600160a01b03167f8c5be1e5ebec7d5bd14f71427d1e84f3dd0314c0f7b2291e5b200ac8c7c3b92560405160405180910390a45050565b6000818152600260205260408120546001600160a01b03166110a25760405162461bcd60e51b815260206004820152602c60248201527f4552433732313a206f70657261746f7220717565727920666f72206e6f6e657860448201526b34b9ba32b73a103a37b5b2b760a11b6064820152608401610710565b60006110ad83610b81565b9050806001600160a01b0316846001600160a01b031614806110e85750836001600160a01b03166110dd8461069b565b6001600160a01b0316145b8061111857506001600160a01b0380821660009081526005602090815260408083209388168352929052205460ff165b949350505050565b826001600160a01b031661113382610b81565b6001600160a01b0316146111af5760405162461bcd60e51b815260206004820152602960248201527f4552433732313a207472616e73666572206f6620746f6b656e2074686174206960448201527f73206e6f74206f776e00000000000000000000000000000000000000000000006064820152608401610710565b6001600160a01b03821661122a5760405162461bcd60e51b8152602060048201526024808201527f4552433732313a207472616e7366657220746f20746865207a65726f2061646460448201527f72657373000000000000000000000000000000000000000000000000000000006064820152608401610710565b6112358383836117b5565b611240600082610fae565b6001600160a01b0383166000908152600360205260408120805460019290611269908490612933565b90915550506001600160a01b03821660009081526003602052604081208054600192906112979084906128ec565b9091555050600081815260026020526040808220805473ffffffffffffffffffffffffffffffffffffffff19166001600160a01b0386811691821790925591518493918716917fddf252ad1be2c89b69c2b068fc378daa952ba7f163c4a11628f55a4df523b3ef91a4505050565b6000828152600a602090815260408083206001600160a01b038516845290915290205460ff16610a4457611343816001600160a01b0316601461186d565b61134e83602061186d565b60405160200161135f92919061294a565b60408051601f198184030181529082905262461bcd60e51b825261071091600401612538565b6000828152600a602090815260408083206001600160a01b038516845290915290205460ff16610a44576000828152600a602090815260408083206001600160a01b03851684529091529020805460ff191660011790556113e33390565b6001600160a01b0316816001600160a01b0316837f2f8788117e7eff1d82e926ec794901d17c78024a50270940304540a733656f0d60405160405180910390a45050565b6000828152600a602090815260408083206001600160a01b038516845290915290205460ff1615610a44576000828152600a602090815260408083206001600160a01b0385168085529252808320805460ff1916905551339285917ff6391f5c32d9c69d2a47ea670b442974b53935d1edc7fd64eb21e047a839171b9190a45050565b610a44828260405180602001604052806000815250611a32565b816001600160a01b0316836001600160a01b031614156115265760405162461bcd60e51b815260206004820152601960248201527f4552433732313a20617070726f766520746f2063616c6c6572000000000000006044820152606401610710565b6001600160a01b03838116600081815260056020908152604080832094871680845294825291829020805460ff191686151590811790915591519182527f17307eab39ab6107e8899845ad3d59bd9653f200f220920489ca2b5937696c31910160405180910390a3505050565b61159e848484611120565b6115aa84848484611ab0565b610e0b5760405162461bcd60e51b815260206004820152603260248201527f4552433732313a207472616e7366657220746f206e6f6e20455243373231526560448201527131b2b4bb32b91034b6b83632b6b2b73a32b960711b6064820152608401610710565b6060600b805461061890612885565b6060816116445750506040805180820190915260018152600360fc1b602082015290565b8160005b811561166e5780611658816129cb565b91506116679050600a836129fc565b9150611648565b60008167ffffffffffffffff811115611689576116896125f9565b6040519080825280601f01601f1916602001820160405280156116b3576020820181803683370190505b5090505b8415611118576116c8600183612933565b91506116d5600a86612a10565b6116e09060306128ec565b60f81b8183815181106116f5576116f56128c0565b60200101906001600160f81b031916908160001a905350611717600a866129fc565b94506116b7565b604080517f53830f36ae1afd5a27cb5c733cbb7d8e37f4180a90f2238fd1fc48909235dac760208201526001600160a01b0384169181019190915260608101829052600090610e3d9060800160405160208183030381529060405280519060200120611bf9565b6000610e3d7f523a704056dcd17bcf83bed8b68c59416dac1119be77755efe3bde0a64e46e0c6103e98585611c62565b6001600160a01b0383166118105761180b81600880546000838152600960205260408120829055600182018355919091527ff3f7a9fe364faab93b216da50a3214154f22a0a2b415b23a84c8169e8b636ee30155565b611833565b816001600160a01b0316836001600160a01b031614611833576118338382611c86565b6001600160a01b03821661184a5761086281611d23565b826001600160a01b0316826001600160a01b031614610862576108628282611dd2565b6060600061187c836002612a24565b6118879060026128ec565b67ffffffffffffffff81111561189f5761189f6125f9565b6040519080825280601f01601f1916602001820160405280156118c9576020820181803683370190505b509050600360fc1b816000815181106118e4576118e46128c0565b60200101906001600160f81b031916908160001a9053507f78000000000000000000000000000000000000000000000000000000000000008160018151811061192f5761192f6128c0565b60200101906001600160f81b031916908160001a9053506000611953846002612a24565b61195e9060016128ec565b90505b60018111156119e3577f303132333435363738396162636465660000000000000000000000000000000085600f166010811061199f5761199f6128c0565b1a60f81b8282815181106119b5576119b56128c0565b60200101906001600160f81b031916908160001a90535060049490941c936119dc81612a43565b9050611961565b508315610e3d5760405162461bcd60e51b815260206004820181905260248201527f537472696e67733a20686578206c656e67746820696e73756666696369656e746044820152606401610710565b611a3c8383611e16565b611a496000848484611ab0565b6108625760405162461bcd60e51b815260206004820152603260248201527f4552433732313a207472616e7366657220746f206e6f6e20455243373231526560448201527131b2b4bb32b91034b6b83632b6b2b73a32b960711b6064820152608401610710565b60006001600160a01b0384163b15611bee57604051630a85bd0160e11b81526001600160a01b0385169063150b7a0290611af4903390899088908890600401612a5a565b6020604051808303816000875af1925050508015611b2f575060408051601f3d908101601f19168201909252611b2c91810190612a96565b60015b611bd4573d808015611b5d576040519150601f19603f3d011682016040523d82523d6000602084013e611b62565b606091505b508051611bcc5760405162461bcd60e51b815260206004820152603260248201527f4552433732313a207472616e7366657220746f206e6f6e20455243373231526560448201527131b2b4bb32b91034b6b83632b6b2b73a32b960711b6064820152608401610710565b805181602001fd5b6001600160e01b031916630a85bd0160e11b149050611118565b506001949350505050565b6000610603611c06611f71565b836040517f19010000000000000000000000000000000000000000000000000000000000006020820152602281018390526042810182905260009060620160405160208183030381529060405280519060200120905092915050565b6000806000611c718585612098565b91509150611c7e81612108565b509392505050565b60006001611c9384610c9a565b611c9d9190612933565b600083815260076020526040902054909150808214611cf0576001600160a01b03841660009081526006602090815260408083208584528252808320548484528184208190558352600790915290208190555b5060009182526007602090815260408084208490556001600160a01b039094168352600681528383209183525290812055565b600854600090611d3590600190612933565b60008381526009602052604081205460088054939450909284908110611d5d57611d5d6128c0565b906000526020600020015490508060088381548110611d7e57611d7e6128c0565b6000918252602080832090910192909255828152600990915260408082208490558582528120556008805480611db657611db6612ab3565b6001900381819060005260206000200160009055905550505050565b6000611ddd83610c9a565b6001600160a01b039093166000908152600660209081526040808320868452825280832085905593825260079052919091209190915550565b6001600160a01b038216611e6c5760405162461bcd60e51b815260206004820181905260248201527f4552433732313a206d696e7420746f20746865207a65726f20616464726573736044820152606401610710565b6000818152600260205260409020546001600160a01b031615611ed15760405162461bcd60e51b815260206004820152601c60248201527f4552433732313a20746f6b656e20616c7265616479206d696e746564000000006044820152606401610710565b611edd600083836117b5565b6001600160a01b0382166000908152600360205260408120805460019290611f069084906128ec565b9091555050600081815260026020526040808220805473ffffffffffffffffffffffffffffffffffffffff19166001600160a01b03861690811790915590518392907fddf252ad1be2c89b69c2b068fc378daa952ba7f163c4a11628f55a4df523b3ef908290a45050565b6000306001600160a01b037f000000000000000000000000000000000000000000000000000000000000000016148015611fca57507f000000000000000000000000000000000000000000000000000000000000000046145b15611ff457507f000000000000000000000000000000000000000000000000000000000000000090565b50604080517f00000000000000000000000000000000000000000000000000000000000000006020808301919091527f0000000000000000000000000000000000000000000000000000000000000000828401527f000000000000000000000000000000000000000000000000000000000000000060608301524660808301523060a0808401919091528351808403909101815260c0909201909252805191012090565b6000808251604114156120cf5760208301516040840151606085015160001a6120c3878285856122c6565b94509450505050612101565b8251604014156120f957602083015160408401516120ee8683836123b3565b935093505050612101565b506000905060025b9250929050565b600081600481111561211c5761211c612ac9565b14156121255750565b600181600481111561213957612139612ac9565b14156121875760405162461bcd60e51b815260206004820152601860248201527f45434453413a20696e76616c6964207369676e617475726500000000000000006044820152606401610710565b600281600481111561219b5761219b612ac9565b14156121e95760405162461bcd60e51b815260206004820152601f60248201527f45434453413a20696e76616c6964207369676e6174757265206c656e677468006044820152606401610710565b60038160048111156121fd576121fd612ac9565b14156122565760405162461bcd60e51b815260206004820152602260248201527f45434453413a20696e76616c6964207369676e6174757265202773272076616c604482015261756560f01b6064820152608401610710565b600481600481111561226a5761226a612ac9565b14156122c35760405162461bcd60e51b815260206004820152602260248201527f45434453413a20696e76616c6964207369676e6174757265202776272076616c604482015261756560f01b6064820152608401610710565b50565b6000807f7fffffffffffffffffffffffffffffff5d576e7357a4501ddfe92f46681b20a08311156122fd57506000905060036123aa565b8460ff16601b1415801561231557508460ff16601c14155b1561232657506000905060046123aa565b6040805160008082526020820180845289905260ff881692820192909252606081018690526080810185905260019060a0016020604051602081039080840390855afa15801561237a573d6000803e3d6000fd5b5050604051601f1901519150506001600160a01b0381166123a3576000600192509250506123aa565b9150600090505b94509492505050565b6000807f7fffffffffffffffffffffffffffffffffffffffffffffffffffffffffffffff831660ff84901c601b016123ed878288856122c6565b935093505050935093915050565b82805461240790612885565b90600052602060002090601f016020900481019282612429576000855561246f565b82601f1061244257805160ff191683800117855561246f565b8280016001018555821561246f579182015b8281111561246f578251825591602001919060010190612454565b5061247b92915061247f565b5090565b5b8082111561247b5760008155600101612480565b6000602082840312156124a657600080fd5b5035919050565b6001600160e01b0319811681146122c357600080fd5b6000602082840312156124d557600080fd5b8135610e3d816124ad565b60005b838110156124fb5781810151838201526020016124e3565b83811115610e0b5750506000910152565b600081518084526125248160208601602086016124e0565b601f01601f19169290920160200192915050565b602081526000610e3d602083018461250c565b80356001600160a01b038116811461256257600080fd5b919050565b6000806040838503121561257a57600080fd5b6125838361254b565b946020939093013593505050565b6000806000606084860312156125a657600080fd5b6125af8461254b565b92506125bd6020850161254b565b9150604084013590509250925092565b600080604083850312156125e057600080fd5b823591506125f06020840161254b565b90509250929050565b634e487b7160e01b600052604160045260246000fd5b600067ffffffffffffffff8084111561262a5761262a6125f9565b604051601f8501601f19908116603f01168101908282118183101715612652576126526125f9565b8160405280935085815286868601111561266b57600080fd5b858560208301376000602087830101525050509392505050565b60006020828403121561269757600080fd5b813567ffffffffffffffff8111156126ae57600080fd5b8201601f810184136126bf57600080fd5b6111188482356020840161260f565b6000602082840312156126e057600080fd5b610e3d8261254b565b600080604083850312156126fc57600080fd5b6127058361254b565b91506020830135801515811461271a57600080fd5b809150509250929050565b6000806000806080858703121561273b57600080fd5b6127448561254b565b93506127526020860161254b565b925060408501359150606085013567ffffffffffffffff81111561277557600080fd5b8501601f8101871361278657600080fd5b6127958782356020840161260f565b91505092959194509250565b803563ffffffff8116811461256257600080fd5b600080604083850312156127c857600080fd5b6127d1836127a1565b91506125f0602084016127a1565b6000806000604084860312156127f457600080fd5b83359250602084013567ffffffffffffffff8082111561281357600080fd5b818601915086601f83011261282757600080fd5b81358181111561283657600080fd5b87602082850101111561284857600080fd5b6020830194508093505050509250925092565b6000806040838503121561286e57600080fd5b6128778361254b565b91506125f06020840161254b565b600181811c9082168061289957607f821691505b602082108114156128ba57634e487b7160e01b600052602260045260246000fd5b50919050565b634e487b7160e01b600052603260045260246000fd5b634e487b7160e01b600052601160045260246000fd5b600082198211156128ff576128ff6128d6565b500190565b600083516129168184602088016124e0565b83519083019061292a8183602088016124e0565b01949350505050565b600082821015612945576129456128d6565b500390565b7f416363657373436f6e74726f6c3a206163636f756e74200000000000000000008152600083516129828160178501602088016124e0565b7f206973206d697373696e6720726f6c652000000000000000000000000000000060179184019182015283516129bf8160288401602088016124e0565b01602801949350505050565b60006000198214156129df576129df6128d6565b5060010190565b634e487b7160e01b600052601260045260246000fd5b600082612a0b57612a0b6129e6565b500490565b600082612a1f57612a1f6129e6565b500690565b6000816000190483118215151615612a3e57612a3e6128d6565b500290565b600081612a5257612a526128d6565b506000190190565b60006001600160a01b03808716835280861660208401525083604083015260806060830152612a8c608083018461250c565b9695505050505050565b600060208284031215612aa857600080fd5b8151610e3d816124ad565b634e487b7160e01b600052603160045260246000fd5b634e487b7160e01b600052602160045260246000fdfea26469706673582212204e6137c61ad4a21d552a48cbaf188a43d0687dbbd3d1ce5e187430f286dd22d064736f6c634300080a0033",
  "devdoc": {
    "kind": "dev",
    "methods": {
      "approve(address,uint256)": {
        "details": "See {IERC721-approve}."
      },
      "balanceOf(address)": {
        "details": "See {IERC721-balanceOf}."
      },
      "constructor": {
        "params": {
          "_name": "NFT name",
          "_newBaseURI": "base URI to use for assets",
          "_symbol": "NFT symbol"
        }
      },
      "getApproved(uint256)": {
        "details": "See {IERC721-getApproved}."
      },
      "getRoleAdmin(bytes32)": {
        "details": "Returns the admin role that controls `role`. See {grantRole} and {revokeRole}. To change a role's admin, use {_setRoleAdmin}."
      },
      "grantRole(bytes32,address)": {
        "details": "Grants `role` to `account`. If `account` had not been already granted `role`, emits a {RoleGranted} event. Requirements: - the caller must have ``role``'s admin role."
      },
      "hasRole(bytes32,address)": {
        "details": "Returns `true` if `account` has been granted `role`."
      },
      "isApprovedForAll(address,address)": {
        "details": "See {IERC721-isApprovedForAll}."
      },
      "name()": {
        "details": "See {IERC721Metadata-name}."
      },
      "ownerOf(uint256)": {
        "details": "See {IERC721-ownerOf}."
      },
      "redeem(uint256,bytes)": {
        "params": {
          "_sig": "EIP712 signature to validate",
          "_tokenId": "token ID to mint"
        }
      },
      "redeemFor(address,uint256)": {
        "params": {
          "_to": "Address of the recipient",
          "_tokenId": "token ID to mint"
        }
      },
      "renounceRole(bytes32,address)": {
        "details": "Revokes `role` from the calling account. Roles are often managed via {grantRole} and {revokeRole}: this function's purpose is to provide a mechanism for accounts to lose their privileges if they are compromised (such as when a trusted device is misplaced). If the calling account had been revoked `role`, emits a {RoleRevoked} event. Requirements: - the caller must be `account`."
      },
      "revokeRole(bytes32,address)": {
        "details": "Revokes `role` from `account`. If `account` had been granted `role`, emits a {RoleRevoked} event. Requirements: - the caller must have ``role``'s admin role."
      },
      "safeTransferFrom(address,address,uint256)": {
        "details": "See {IERC721-safeTransferFrom}."
      },
      "safeTransferFrom(address,address,uint256,bytes)": {
        "details": "See {IERC721-safeTransferFrom}."
      },
      "setApprovalForAll(address,bool)": {
        "details": "See {IERC721-setApprovalForAll}."
      },
      "setBaseURI(string)": {
        "params": {
          "_newBaseURI": "new base URI for the token"
        }
      },
      "symbol()": {
        "details": "See {IERC721Metadata-symbol}."
      },
      "tokenByIndex(uint256)": {
        "details": "See {IERC721Enumerable-tokenByIndex}."
      },
      "tokenOfOwnerByIndex(address,uint256)": {
        "details": "See {IERC721Enumerable-tokenOfOwnerByIndex}."
      },
      "tokenURI(uint256)": {
        "details": "See {IERC721Metadata-tokenURI}."
      },
      "totalSupply()": {
        "details": "See {IERC721Enumerable-totalSupply}."
      },
      "transferFrom(address,address,uint256)": {
        "details": "See {IERC721-transferFrom}."
      }
    },
    "version": 1
  },
  "userdoc": {
    "events": {
      "BaseURIUpdated(string)": {
        "notice": "Emitted when the base URI changes"
      }
    },
    "kind": "user",
    "methods": {
      "OPERATOR_ROLE()": {
        "notice": "Role with permissions to set metadata and URIs"
      },
      "baseURI()": {
        "notice": "Base URI for all NFTs"
      },
      "redeem(uint256,bytes)": {
        "notice": "Mints a new NFT"
      },
      "redeemFor(address,uint256)": {
        "notice": "Mints a new NFT on behalf of an accountOnly callable by an approved operator"
      },
      "setBaseURI(string)": {
        "notice": "Updates the base URIOnly callable by an authorized operator"
      }
    },
    "notice": "An NFT representing the Subvisual Universe",
    "version": 1
  },
  "storageLayout": {
    "storage": [
      {
        "astId": 407,
        "contract": "contracts/SubvisualUniverseNFT.sol:SubvisualUniverseNFT",
        "label": "_name",
        "offset": 0,
        "slot": "0",
        "type": "t_string_storage"
      },
      {
        "astId": 409,
        "contract": "contracts/SubvisualUniverseNFT.sol:SubvisualUniverseNFT",
        "label": "_symbol",
        "offset": 0,
        "slot": "1",
        "type": "t_string_storage"
      },
      {
        "astId": 413,
        "contract": "contracts/SubvisualUniverseNFT.sol:SubvisualUniverseNFT",
        "label": "_owners",
        "offset": 0,
        "slot": "2",
        "type": "t_mapping(t_uint256,t_address)"
      },
      {
        "astId": 417,
        "contract": "contracts/SubvisualUniverseNFT.sol:SubvisualUniverseNFT",
        "label": "_balances",
        "offset": 0,
        "slot": "3",
        "type": "t_mapping(t_address,t_uint256)"
      },
      {
        "astId": 421,
        "contract": "contracts/SubvisualUniverseNFT.sol:SubvisualUniverseNFT",
        "label": "_tokenApprovals",
        "offset": 0,
        "slot": "4",
        "type": "t_mapping(t_uint256,t_address)"
      },
      {
        "astId": 427,
        "contract": "contracts/SubvisualUniverseNFT.sol:SubvisualUniverseNFT",
        "label": "_operatorApprovals",
        "offset": 0,
        "slot": "5",
        "type": "t_mapping(t_address,t_mapping(t_address,t_bool))"
      },
      {
        "astId": 1361,
        "contract": "contracts/SubvisualUniverseNFT.sol:SubvisualUniverseNFT",
        "label": "_ownedTokens",
        "offset": 0,
        "slot": "6",
        "type": "t_mapping(t_address,t_mapping(t_uint256,t_uint256))"
      },
      {
        "astId": 1365,
        "contract": "contracts/SubvisualUniverseNFT.sol:SubvisualUniverseNFT",
        "label": "_ownedTokensIndex",
        "offset": 0,
        "slot": "7",
        "type": "t_mapping(t_uint256,t_uint256)"
      },
      {
        "astId": 1368,
        "contract": "contracts/SubvisualUniverseNFT.sol:SubvisualUniverseNFT",
        "label": "_allTokens",
        "offset": 0,
        "slot": "8",
        "type": "t_array(t_uint256)dyn_storage"
      },
      {
        "astId": 1372,
        "contract": "contracts/SubvisualUniverseNFT.sol:SubvisualUniverseNFT",
        "label": "_allTokensIndex",
        "offset": 0,
        "slot": "9",
        "type": "t_mapping(t_uint256,t_uint256)"
      },
      {
        "astId": 24,
        "contract": "contracts/SubvisualUniverseNFT.sol:SubvisualUniverseNFT",
        "label": "_roles",
        "offset": 0,
        "slot": "10",
        "type": "t_mapping(t_bytes32,t_struct(RoleData)19_storage)"
      },
      {
        "astId": 2882,
        "contract": "contracts/SubvisualUniverseNFT.sol:SubvisualUniverseNFT",
        "label": "baseURI",
        "offset": 0,
        "slot": "11",
        "type": "t_string_storage"
      },
      {
        "astId": 2884,
        "contract": "contracts/SubvisualUniverseNFT.sol:SubvisualUniverseNFT",
        "label": "gridWidth",
        "offset": 0,
        "slot": "12",
        "type": "t_uint32"
      },
      {
        "astId": 2886,
        "contract": "contracts/SubvisualUniverseNFT.sol:SubvisualUniverseNFT",
        "label": "gridHheight",
        "offset": 4,
        "slot": "12",
        "type": "t_uint32"
      }
    ],
    "types": {
      "t_address": {
        "encoding": "inplace",
        "label": "address",
        "numberOfBytes": "20"
      },
      "t_array(t_uint256)dyn_storage": {
        "base": "t_uint256",
        "encoding": "dynamic_array",
        "label": "uint256[]",
        "numberOfBytes": "32"
      },
      "t_bool": {
        "encoding": "inplace",
        "label": "bool",
        "numberOfBytes": "1"
      },
      "t_bytes32": {
        "encoding": "inplace",
        "label": "bytes32",
        "numberOfBytes": "32"
      },
      "t_mapping(t_address,t_bool)": {
        "encoding": "mapping",
        "key": "t_address",
        "label": "mapping(address => bool)",
        "numberOfBytes": "32",
        "value": "t_bool"
      },
      "t_mapping(t_address,t_mapping(t_address,t_bool))": {
        "encoding": "mapping",
        "key": "t_address",
        "label": "mapping(address => mapping(address => bool))",
        "numberOfBytes": "32",
        "value": "t_mapping(t_address,t_bool)"
      },
      "t_mapping(t_address,t_mapping(t_uint256,t_uint256))": {
        "encoding": "mapping",
        "key": "t_address",
        "label": "mapping(address => mapping(uint256 => uint256))",
        "numberOfBytes": "32",
        "value": "t_mapping(t_uint256,t_uint256)"
      },
      "t_mapping(t_address,t_uint256)": {
        "encoding": "mapping",
        "key": "t_address",
        "label": "mapping(address => uint256)",
        "numberOfBytes": "32",
        "value": "t_uint256"
      },
      "t_mapping(t_bytes32,t_struct(RoleData)19_storage)": {
        "encoding": "mapping",
        "key": "t_bytes32",
        "label": "mapping(bytes32 => struct AccessControl.RoleData)",
        "numberOfBytes": "32",
        "value": "t_struct(RoleData)19_storage"
      },
      "t_mapping(t_uint256,t_address)": {
        "encoding": "mapping",
        "key": "t_uint256",
        "label": "mapping(uint256 => address)",
        "numberOfBytes": "32",
        "value": "t_address"
      },
      "t_mapping(t_uint256,t_uint256)": {
        "encoding": "mapping",
        "key": "t_uint256",
        "label": "mapping(uint256 => uint256)",
        "numberOfBytes": "32",
        "value": "t_uint256"
      },
      "t_string_storage": {
        "encoding": "bytes",
        "label": "string",
        "numberOfBytes": "32"
      },
      "t_struct(RoleData)19_storage": {
        "encoding": "inplace",
        "label": "struct AccessControl.RoleData",
        "members": [
          {
            "astId": 16,
            "contract": "contracts/SubvisualUniverseNFT.sol:SubvisualUniverseNFT",
            "label": "members",
            "offset": 0,
            "slot": "0",
            "type": "t_mapping(t_address,t_bool)"
          },
          {
            "astId": 18,
            "contract": "contracts/SubvisualUniverseNFT.sol:SubvisualUniverseNFT",
            "label": "adminRole",
            "offset": 0,
            "slot": "1",
            "type": "t_bytes32"
          }
        ],
        "numberOfBytes": "64"
      },
      "t_uint256": {
        "encoding": "inplace",
        "label": "uint256",
        "numberOfBytes": "32"
      },
      "t_uint32": {
        "encoding": "inplace",
        "label": "uint32",
        "numberOfBytes": "4"
      }
    }
  }
}