{
  "address": "0xB2F4d5417D79b640e02958B7Ca14dD020db17677",
  "abi": [
    {
      "inputs": [
        {
          "internalType": "string",
          "name": "_name",
          "type": "string"
        },
        {
          "internalType": "string",
          "name": "_symbol",
          "type": "string"
        },
        {
          "internalType": "string",
          "name": "_newBaseURI",
          "type": "string"
        },
        {
          "internalType": "string",
          "name": "_newURISuffix",
          "type": "string"
        },
        {
          "internalType": "uint16",
          "name": "_width",
          "type": "uint16"
        },
        {
          "internalType": "uint16",
          "name": "_height",
          "type": "uint16"
        },
        {
          "internalType": "address",
          "name": "_owner",
          "type": "address"
        }
      ],
      "stateMutability": "nonpayable",
      "type": "constructor"
    },
    {
      "anonymous": false,
      "inputs": [
        {
          "indexed": true,
          "internalType": "address",
          "name": "owner",
          "type": "address"
        },
        {
          "indexed": true,
          "internalType": "address",
          "name": "approved",
          "type": "address"
        },
        {
          "indexed": true,
          "internalType": "uint256",
          "name": "tokenId",
          "type": "uint256"
        }
      ],
      "name": "Approval",
      "type": "event"
    },
    {
      "anonymous": false,
      "inputs": [
        {
          "indexed": true,
          "internalType": "address",
          "name": "owner",
          "type": "address"
        },
        {
          "indexed": true,
          "internalType": "address",
          "name": "operator",
          "type": "address"
        },
        {
          "indexed": false,
          "internalType": "bool",
          "name": "approved",
          "type": "bool"
        }
      ],
      "name": "ApprovalForAll",
      "type": "event"
    },
    {
      "anonymous": false,
      "inputs": [
        {
          "indexed": false,
          "internalType": "string",
          "name": "newBaseURI",
          "type": "string"
        }
      ],
      "name": "BaseURIUpdated",
      "type": "event"
    },
    {
      "anonymous": false,
      "inputs": [
        {
          "indexed": true,
          "internalType": "bytes32",
          "name": "role",
          "type": "bytes32"
        },
        {
          "indexed": true,
          "internalType": "bytes32",
          "name": "previousAdminRole",
          "type": "bytes32"
        },
        {
          "indexed": true,
          "internalType": "bytes32",
          "name": "newAdminRole",
          "type": "bytes32"
        }
      ],
      "name": "RoleAdminChanged",
      "type": "event"
    },
    {
      "anonymous": false,
      "inputs": [
        {
          "indexed": true,
          "internalType": "bytes32",
          "name": "role",
          "type": "bytes32"
        },
        {
          "indexed": true,
          "internalType": "address",
          "name": "account",
          "type": "address"
        },
        {
          "indexed": true,
          "internalType": "address",
          "name": "sender",
          "type": "address"
        }
      ],
      "name": "RoleGranted",
      "type": "event"
    },
    {
      "anonymous": false,
      "inputs": [
        {
          "indexed": true,
          "internalType": "bytes32",
          "name": "role",
          "type": "bytes32"
        },
        {
          "indexed": true,
          "internalType": "address",
          "name": "account",
          "type": "address"
        },
        {
          "indexed": true,
          "internalType": "address",
          "name": "sender",
          "type": "address"
        }
      ],
      "name": "RoleRevoked",
      "type": "event"
    },
    {
      "anonymous": false,
      "inputs": [
        {
          "indexed": true,
          "internalType": "address",
          "name": "from",
          "type": "address"
        },
        {
          "indexed": true,
          "internalType": "address",
          "name": "to",
          "type": "address"
        },
        {
          "indexed": true,
          "internalType": "uint256",
          "name": "tokenId",
          "type": "uint256"
        }
      ],
      "name": "Transfer",
      "type": "event"
    },
    {
      "anonymous": false,
      "inputs": [
        {
          "indexed": false,
          "internalType": "string",
          "name": "newURISuffix",
          "type": "string"
        }
      ],
      "name": "URISuffixUpdated",
      "type": "event"
    },
    {
      "inputs": [],
      "name": "DEFAULT_ADMIN_ROLE",
      "outputs": [
        {
          "internalType": "bytes32",
          "name": "",
          "type": "bytes32"
        }
      ],
      "stateMutability": "view",
      "type": "function"
    },
    {
      "inputs": [],
      "name": "MINT_TYPEHASH",
      "outputs": [
        {
          "internalType": "bytes32",
          "name": "",
          "type": "bytes32"
        }
      ],
      "stateMutability": "view",
      "type": "function"
    },
    {
      "inputs": [],
      "name": "OPERATOR_ROLE",
      "outputs": [
        {
          "internalType": "bytes32",
          "name": "",
          "type": "bytes32"
        }
      ],
      "stateMutability": "view",
      "type": "function"
    },
    {
      "inputs": [],
      "name": "URISuffix",
      "outputs": [
        {
          "internalType": "string",
          "name": "",
          "type": "string"
        }
      ],
      "stateMutability": "view",
      "type": "function"
    },
    {
      "inputs": [
        {
          "internalType": "address",
          "name": "to",
          "type": "address"
        },
        {
          "internalType": "uint256",
          "name": "tokenId",
          "type": "uint256"
        }
      ],
      "name": "approve",
      "outputs": [],
      "stateMutability": "nonpayable",
      "type": "function"
    },
    {
      "inputs": [
        {
          "internalType": "address",
          "name": "owner",
          "type": "address"
        }
      ],
      "name": "balanceOf",
      "outputs": [
        {
          "internalType": "uint256",
          "name": "",
          "type": "uint256"
        }
      ],
      "stateMutability": "view",
      "type": "function"
    },
    {
      "inputs": [],
      "name": "baseURI",
      "outputs": [
        {
          "internalType": "string",
          "name": "",
          "type": "string"
        }
      ],
      "stateMutability": "view",
      "type": "function"
    },
    {
      "inputs": [
        {
          "internalType": "uint16",
          "name": "x",
          "type": "uint16"
        },
        {
          "internalType": "uint16",
          "name": "y",
          "type": "uint16"
        }
      ],
      "name": "coordsToId",
      "outputs": [
        {
          "internalType": "uint256",
          "name": "",
          "type": "uint256"
        }
      ],
      "stateMutability": "pure",
      "type": "function"
    },
    {
      "inputs": [
        {
          "internalType": "uint256",
          "name": "tokenId",
          "type": "uint256"
        }
      ],
      "name": "getApproved",
      "outputs": [
        {
          "internalType": "address",
          "name": "",
          "type": "address"
        }
      ],
      "stateMutability": "view",
      "type": "function"
    },
    {
      "inputs": [
        {
          "internalType": "bytes32",
          "name": "role",
          "type": "bytes32"
        }
      ],
      "name": "getRoleAdmin",
      "outputs": [
        {
          "internalType": "bytes32",
          "name": "",
          "type": "bytes32"
        }
      ],
      "stateMutability": "view",
      "type": "function"
    },
    {
      "inputs": [
        {
          "internalType": "bytes32",
          "name": "role",
          "type": "bytes32"
        },
        {
          "internalType": "address",
          "name": "account",
          "type": "address"
        }
      ],
      "name": "grantRole",
      "outputs": [],
      "stateMutability": "nonpayable",
      "type": "function"
    },
    {
      "inputs": [
        {
          "internalType": "bytes32",
          "name": "role",
          "type": "bytes32"
        },
        {
          "internalType": "address",
          "name": "account",
          "type": "address"
        }
      ],
      "name": "hasRole",
      "outputs": [
        {
          "internalType": "bool",
          "name": "",
          "type": "bool"
        }
      ],
      "stateMutability": "view",
      "type": "function"
    },
    {
      "inputs": [],
      "name": "height",
      "outputs": [
        {
          "internalType": "uint16",
          "name": "",
          "type": "uint16"
        }
      ],
      "stateMutability": "view",
      "type": "function"
    },
    {
      "inputs": [
        {
          "internalType": "uint256",
          "name": "id",
          "type": "uint256"
        }
      ],
      "name": "idToCoords",
      "outputs": [
        {
          "internalType": "uint16",
          "name": "x",
          "type": "uint16"
        },
        {
          "internalType": "uint16",
          "name": "y",
          "type": "uint16"
        }
      ],
      "stateMutability": "pure",
      "type": "function"
    },
    {
      "inputs": [
        {
          "internalType": "uint256",
          "name": "_tokenId",
          "type": "uint256"
        }
      ],
      "name": "inBoundaries",
      "outputs": [
        {
          "internalType": "bool",
          "name": "",
          "type": "bool"
        }
      ],
      "stateMutability": "view",
      "type": "function"
    },
    {
      "inputs": [
        {
          "internalType": "address",
          "name": "owner",
          "type": "address"
        },
        {
          "internalType": "address",
          "name": "operator",
          "type": "address"
        }
      ],
      "name": "isApprovedForAll",
      "outputs": [
        {
          "internalType": "bool",
          "name": "",
          "type": "bool"
        }
      ],
      "stateMutability": "view",
      "type": "function"
    },
    {
      "inputs": [],
      "name": "name",
      "outputs": [
        {
          "internalType": "string",
          "name": "",
          "type": "string"
        }
      ],
      "stateMutability": "view",
      "type": "function"
    },
    {
      "inputs": [
        {
          "internalType": "uint256",
          "name": "tokenId",
          "type": "uint256"
        }
      ],
      "name": "ownerOf",
      "outputs": [
        {
          "internalType": "address",
          "name": "",
          "type": "address"
        }
      ],
      "stateMutability": "view",
      "type": "function"
    },
    {
      "inputs": [
        {
          "internalType": "uint256",
          "name": "_tokenId",
          "type": "uint256"
        },
        {
          "internalType": "bytes",
          "name": "_sig",
          "type": "bytes"
        }
      ],
      "name": "redeem",
      "outputs": [],
      "stateMutability": "nonpayable",
      "type": "function"
    },
    {
      "inputs": [
        {
          "internalType": "address",
          "name": "_to",
          "type": "address"
        },
        {
          "internalType": "uint256",
          "name": "_tokenId",
          "type": "uint256"
        }
      ],
      "name": "redeemFor",
      "outputs": [],
      "stateMutability": "nonpayable",
      "type": "function"
    },
    {
      "inputs": [
        {
          "internalType": "bytes32",
          "name": "role",
          "type": "bytes32"
        },
        {
          "internalType": "address",
          "name": "account",
          "type": "address"
        }
      ],
      "name": "renounceRole",
      "outputs": [],
      "stateMutability": "nonpayable",
      "type": "function"
    },
    {
      "inputs": [
        {
          "internalType": "bytes32",
          "name": "role",
          "type": "bytes32"
        },
        {
          "internalType": "address",
          "name": "account",
          "type": "address"
        }
      ],
      "name": "revokeRole",
      "outputs": [],
      "stateMutability": "nonpayable",
      "type": "function"
    },
    {
      "inputs": [
        {
          "internalType": "address",
          "name": "from",
          "type": "address"
        },
        {
          "internalType": "address",
          "name": "to",
          "type": "address"
        },
        {
          "internalType": "uint256",
          "name": "tokenId",
          "type": "uint256"
        }
      ],
      "name": "safeTransferFrom",
      "outputs": [],
      "stateMutability": "nonpayable",
      "type": "function"
    },
    {
      "inputs": [
        {
          "internalType": "address",
          "name": "from",
          "type": "address"
        },
        {
          "internalType": "address",
          "name": "to",
          "type": "address"
        },
        {
          "internalType": "uint256",
          "name": "tokenId",
          "type": "uint256"
        },
        {
          "internalType": "bytes",
          "name": "_data",
          "type": "bytes"
        }
      ],
      "name": "safeTransferFrom",
      "outputs": [],
      "stateMutability": "nonpayable",
      "type": "function"
    },
    {
      "inputs": [
        {
          "internalType": "address",
          "name": "operator",
          "type": "address"
        },
        {
          "internalType": "bool",
          "name": "approved",
          "type": "bool"
        }
      ],
      "name": "setApprovalForAll",
      "outputs": [],
      "stateMutability": "nonpayable",
      "type": "function"
    },
    {
      "inputs": [
        {
          "internalType": "string",
          "name": "_newBaseURI",
          "type": "string"
        }
      ],
      "name": "setBaseURI",
      "outputs": [],
      "stateMutability": "nonpayable",
      "type": "function"
    },
    {
      "inputs": [
        {
          "internalType": "string",
          "name": "_newURISuffix",
          "type": "string"
        }
      ],
      "name": "setURISuffix",
      "outputs": [],
      "stateMutability": "nonpayable",
      "type": "function"
    },
    {
      "inputs": [
        {
          "internalType": "bytes4",
          "name": "interfaceId",
          "type": "bytes4"
        }
      ],
      "name": "supportsInterface",
      "outputs": [
        {
          "internalType": "bool",
          "name": "",
          "type": "bool"
        }
      ],
      "stateMutability": "view",
      "type": "function"
    },
    {
      "inputs": [],
      "name": "symbol",
      "outputs": [
        {
          "internalType": "string",
          "name": "",
          "type": "string"
        }
      ],
      "stateMutability": "view",
      "type": "function"
    },
    {
      "inputs": [
        {
          "internalType": "uint256",
          "name": "tokenId",
          "type": "uint256"
        }
      ],
      "name": "tokenData",
      "outputs": [
        {
          "components": [
            {
              "internalType": "uint256",
              "name": "id",
              "type": "uint256"
            },
            {
              "internalType": "address",
              "name": "owner",
              "type": "address"
            },
            {
              "internalType": "string",
              "name": "uri",
              "type": "string"
            }
          ],
          "internalType": "struct SubvisualUniverseNFT.Data",
          "name": "",
          "type": "tuple"
        }
      ],
      "stateMutability": "view",
      "type": "function"
    },
    {
      "inputs": [
        {
          "internalType": "uint256",
          "name": "tokenId",
          "type": "uint256"
        }
      ],
      "name": "tokenURI",
      "outputs": [
        {
          "internalType": "string",
          "name": "",
          "type": "string"
        }
      ],
      "stateMutability": "view",
      "type": "function"
    },
    {
      "inputs": [
        {
          "internalType": "address",
          "name": "from",
          "type": "address"
        },
        {
          "internalType": "address",
          "name": "to",
          "type": "address"
        },
        {
          "internalType": "uint256",
          "name": "tokenId",
          "type": "uint256"
        }
      ],
      "name": "transferFrom",
      "outputs": [],
      "stateMutability": "nonpayable",
      "type": "function"
    },
    {
      "inputs": [],
      "name": "width",
      "outputs": [
        {
          "internalType": "uint16",
          "name": "",
          "type": "uint16"
        }
      ],
      "stateMutability": "view",
      "type": "function"
    }
  ],
  "transactionHash": "0x56aa7809acb6af02d16d2b0e9c49e9e6c75d0c161c112ee7b0df7fffe3938079",
  "args": [
    "Subvisual Universe NFT",
    "SV-UNI",
    "https://holidays-rinkeby.subvisual.com/minted/",
    ".png",
    255,
    255,
    "0x6D41E0096f332Af1Fab2ba21936ce120dE9244f2"
  ],
  "numDeployments": 1,
  "solcInputHash": "6c702641a29b499b534f7eba225a8bbf",
  "bytecode": "0x6101406040523480156200001257600080fd5b50604051620031fd380380620031fd83398101604081905262000035916200047e565b86604051806040016040528060058152602001640312e302e360dc1b815250888881600090805190602001906200006e929190620002ce565b50805162000084906001906020840190620002ce565b5050825160209384012082519284019290922060e08390526101008190524660a0818152604080517f8b73c3c69bb8fe3d512ecc4cf759cc79239f7b179b0ffacaa9a75d522b39400f818901819052818301979097526060810194909452608080850193909352308483018190528151808603909301835260c0948501909152815191909601209052929092526101205250620001236000826200021a565b6200014f7f523a704056dcd17bcf83bed8b68c59416dac1119be77755efe3bde0a64e46e0c826200021a565b845162000164906007906020880190620002ce565b5083516200017a906008906020870190620002ce565b506009805461ffff848116620100000263ffffffff19909216908616171790556040517f6741b2fc379fad678116fe3d4d4b9a1a184ab53ba36b86ad0fa66340b1ab41ad90620001cc9087906200056f565b60405180910390a17f80ee62268f37acfc25ec039b3bdc164eb560c675d21e677b7452e1f34a56897a846040516200020591906200056f565b60405180910390a150505050505050620005e1565b6200022682826200022a565b5050565b60008281526006602090815260408083206001600160a01b038516845290915290205460ff16620002265760008281526006602090815260408083206001600160a01b03851684529091529020805460ff191660011790556200028a3390565b6001600160a01b0316816001600160a01b0316837f2f8788117e7eff1d82e926ec794901d17c78024a50270940304540a733656f0d60405160405180910390a45050565b828054620002dc90620005a4565b90600052602060002090601f0160209004810192826200030057600085556200034b565b82601f106200031b57805160ff19168380011785556200034b565b828001600101855582156200034b579182015b828111156200034b5782518255916020019190600101906200032e565b50620003599291506200035d565b5090565b5b808211156200035957600081556001016200035e565b634e487b7160e01b600052604160045260246000fd5b60005b83811015620003a75781810151838201526020016200038d565b83811115620003b7576000848401525b50505050565b600082601f830112620003cf57600080fd5b81516001600160401b0380821115620003ec57620003ec62000374565b604051601f8301601f19908116603f0116810190828211818310171562000417576200041762000374565b816040528381528660208588010111156200043157600080fd5b620004448460208301602089016200038a565b9695505050505050565b805161ffff811681146200046157600080fd5b919050565b80516001600160a01b03811681146200046157600080fd5b600080600080600080600060e0888a0312156200049a57600080fd5b87516001600160401b0380821115620004b257600080fd5b620004c08b838c01620003bd565b985060208a0151915080821115620004d757600080fd5b620004e58b838c01620003bd565b975060408a0151915080821115620004fc57600080fd5b6200050a8b838c01620003bd565b965060608a01519150808211156200052157600080fd5b50620005308a828b01620003bd565b94505062000541608089016200044e565b92506200055160a089016200044e565b91506200056160c0890162000466565b905092959891949750929550565b6020815260008251806020840152620005908160408501602087016200038a565b601f01601f19169190910160400192915050565b600181811c90821680620005b957607f821691505b60208210811415620005db57634e487b7160e01b600052602260045260246000fd5b50919050565b60805160a05160c05160e0516101005161012051612bcc620006316000396000611f8601526000611fd501526000611fb001526000611f0901526000611f3301526000611f5d0152612bcc6000f3fe608060405234801561001057600080fd5b506004361061020b5760003560e01c80637a82a1981161012a578063b88d4fde116100bd578063e77c646d1161008c578063ed5dbebf11610071578063ed5dbebf146104fe578063f5b541a614610511578063f76fc35e1461053857600080fd5b8063e77c646d146104af578063e985e9c5146104c257600080fd5b8063b88d4fde14610463578063c18b9e0014610476578063c87b56dd14610489578063d547741f1461049c57600080fd5b80639ededf77116100f95780639ededf771461041a578063a217fddf14610428578063a22cb46514610430578063b4b5b48f1461044357600080fd5b80637a82a198146103b357806381b3e575146103c657806391d14854146103d957806395d89b411461041257600080fd5b8063248a9ca3116101a257806355f804b31161017157806355f804b3146103725780636352211e146103855780636c0360eb1461039857806370a08231146103a057600080fd5b8063248a9ca3146103085780632f2ff15d1461033957806336568abe1461034c57806342842e0e1461035f57600080fd5b8063095ea7b3116101de578063095ea7b3146102b15780630ef26743146102c6578063101b0fbc146102ed57806323b872dd146102f557600080fd5b806301dacdbe1461021057806301ffc9a71461024e57806306fdde0314610271578063081812fc14610286575b600080fd5b61022e61021e366004612455565b601081901c916201ffff90911690565b6040805161ffff9384168152929091166020830152015b60405180910390f35b61026161025c366004612484565b61055f565b6040519015158152602001610245565b61027961060b565b60405161024591906124f9565b610299610294366004612455565b61069d565b6040516001600160a01b039091168152602001610245565b6102c46102bf366004612523565b610748565b005b6009546102da9062010000900461ffff1681565b60405161ffff9091168152602001610245565b61027961087a565b6102c461030336600461254d565b610908565b61032b610316366004612455565b60009081526006602052604090206001015490565b604051908152602001610245565b6102c4610347366004612589565b61098f565b6102c461035a366004612589565b6109b5565b6102c461036d36600461254d565b610a41565b6102c4610380366004612641565b610a5c565b610299610393366004612455565b610ad6565b610279610b61565b61032b6103ae36600461268a565b610b6e565b6102c46103c1366004612523565b610c08565b6102c46103d4366004612641565b610c3d565b6102616103e7366004612589565b60009182526006602090815260408084206001600160a01b0393909316845291905290205460ff1690565b610279610cab565b6009546102da9061ffff1681565b61032b600081565b6102c461043e3660046126a5565b610cba565b610456610451366004612455565b610cc5565b60405161024591906126e1565b6102c4610471366004612719565b610cea565b61032b6104843660046127a7565b610d78565b610279610497366004612455565b610d99565b6102c46104aa366004612589565b610e1e565b6102c46104bd3660046127d1565b610e44565b6102616104d036600461284d565b6001600160a01b03918216600090815260056020908152604080832093909416825291909152205460ff1690565b61026161050c366004612455565b610ef5565b61032b7f523a704056dcd17bcf83bed8b68c59416dac1119be77755efe3bde0a64e46e0c81565b61032b7f53830f36ae1afd5a27cb5c733cbb7d8e37f4180a90f2238fd1fc48909235dac781565b60006001600160e01b031982167f80ac58cd0000000000000000000000000000000000000000000000000000000014806105c257506001600160e01b031982167f5b5e139f00000000000000000000000000000000000000000000000000000000145b806105f657506001600160e01b031982167f7965db0b00000000000000000000000000000000000000000000000000000000145b80610605575061060582610f32565b92915050565b60606000805461061a90612877565b80601f016020809104026020016040519081016040528092919081815260200182805461064690612877565b80156106935780601f1061066857610100808354040283529160200191610693565b820191906000526020600020905b81548152906001019060200180831161067657829003601f168201915b5050505050905090565b6000818152600260205260408120546001600160a01b031661072c5760405162461bcd60e51b815260206004820152602c60248201527f4552433732313a20617070726f76656420717565727920666f72206e6f6e657860448201527f697374656e7420746f6b656e000000000000000000000000000000000000000060648201526084015b60405180910390fd5b506000908152600460205260409020546001600160a01b031690565b600061075382610ad6565b9050806001600160a01b0316836001600160a01b031614156107dd5760405162461bcd60e51b815260206004820152602160248201527f4552433732313a20617070726f76616c20746f2063757272656e74206f776e6560448201527f72000000000000000000000000000000000000000000000000000000000000006064820152608401610723565b336001600160a01b03821614806107f957506107f981336104d0565b61086b5760405162461bcd60e51b815260206004820152603860248201527f4552433732313a20617070726f76652063616c6c6572206973206e6f74206f7760448201527f6e6572206e6f7220617070726f76656420666f7220616c6c00000000000000006064820152608401610723565b6108758383610f70565b505050565b6008805461088790612877565b80601f01602080910402602001604051908101604052809291908181526020018280546108b390612877565b80156109005780601f106108d557610100808354040283529160200191610900565b820191906000526020600020905b8154815290600101906020018083116108e357829003601f168201915b505050505081565b6109123382610feb565b6109845760405162461bcd60e51b815260206004820152603160248201527f4552433732313a207472616e736665722063616c6c6572206973206e6f74206f60448201527f776e6572206e6f7220617070726f7665640000000000000000000000000000006064820152608401610723565b6108758383836110ef565b6000828152600660205260409020600101546109ab81336112c9565b6108758383611349565b6001600160a01b0381163314610a335760405162461bcd60e51b815260206004820152602f60248201527f416363657373436f6e74726f6c3a2063616e206f6e6c792072656e6f756e636560448201527f20726f6c657320666f722073656c6600000000000000000000000000000000006064820152608401610723565b610a3d82826113eb565b5050565b61087583838360405180602001604052806000815250610cea565b7f523a704056dcd17bcf83bed8b68c59416dac1119be77755efe3bde0a64e46e0c610a8781336112c9565b8151610a9a9060079060208501906123bc565b507f6741b2fc379fad678116fe3d4d4b9a1a184ab53ba36b86ad0fa66340b1ab41ad82604051610aca91906124f9565b60405180910390a15050565b6000818152600260205260408120546001600160a01b0316806106055760405162461bcd60e51b815260206004820152602960248201527f4552433732313a206f776e657220717565727920666f72206e6f6e657869737460448201527f656e7420746f6b656e00000000000000000000000000000000000000000000006064820152608401610723565b6007805461088790612877565b60006001600160a01b038216610bec5760405162461bcd60e51b815260206004820152602a60248201527f4552433732313a2062616c616e636520717565727920666f7220746865207a6560448201527f726f2061646472657373000000000000000000000000000000000000000000006064820152608401610723565b506001600160a01b031660009081526003602052604090205490565b7f523a704056dcd17bcf83bed8b68c59416dac1119be77755efe3bde0a64e46e0c610c3381336112c9565b610875838361146e565b7f523a704056dcd17bcf83bed8b68c59416dac1119be77755efe3bde0a64e46e0c610c6881336112c9565b8151610c7b9060089060208501906123bc565b507f80ee62268f37acfc25ec039b3bdc164eb560c675d21e677b7452e1f34a56897a82604051610aca91906124f9565b60606001805461061a90612877565b610a3d338383611488565b6040805160608082018352600080835260208301529181019190915261060582611557565b610cf43383610feb565b610d665760405162461bcd60e51b815260206004820152603160248201527f4552433732313a207472616e736665722063616c6c6572206973206e6f74206f60448201527f776e6572206e6f7220617070726f7665640000000000000000000000000000006064820152608401610723565b610d72848484846115fb565b50505050565b6000610d9261ffff831663ffff0000601086901b166128c8565b9392505050565b60078054606091601084901c916201ffff851691600091610db990612877565b905011610dd55760405180602001604052806000815250610e16565b6007610de48361ffff16611684565b610df18361ffff16611684565b6008604051602001610e06949392919061297a565b6040516020818303038152906040525b949350505050565b600082815260066020526040902060010154610e3a81336112c9565b61087583836113eb565b610e4d83610ef5565b610e995760405162461bcd60e51b815260206004820152601360248201527f6e6f7420696e73696465207468652067726964000000000000000000000000006044820152606401610723565b610ee2610ea633856117b6565b83838080601f01602080910402602001604051908101604052809392919081815260200183838082843760009201919091525061181d92505050565b610eeb57600080fd5b610875338461146e565b600954600090601083901c906201ffff84169061ffff908116908316108015610e16575060095462010000900461ffff9081169116109392505050565b60006001600160e01b031982167f7965db0b00000000000000000000000000000000000000000000000000000000148061060557506106058261184d565b6000818152600460205260409020805473ffffffffffffffffffffffffffffffffffffffff19166001600160a01b0384169081179091558190610fb282610ad6565b6001600160a01b03167f8c5be1e5ebec7d5bd14f71427d1e84f3dd0314c0f7b2291e5b200ac8c7c3b92560405160405180910390a45050565b6000818152600260205260408120546001600160a01b03166110755760405162461bcd60e51b815260206004820152602c60248201527f4552433732313a206f70657261746f7220717565727920666f72206e6f6e657860448201527f697374656e7420746f6b656e00000000000000000000000000000000000000006064820152608401610723565b600061108083610ad6565b9050806001600160a01b0316846001600160a01b031614806110bb5750836001600160a01b03166110b08461069d565b6001600160a01b0316145b80610e1657506001600160a01b0380821660009081526005602090815260408083209388168352929052205460ff16610e16565b826001600160a01b031661110282610ad6565b6001600160a01b03161461117e5760405162461bcd60e51b815260206004820152602960248201527f4552433732313a207472616e73666572206f6620746f6b656e2074686174206960448201527f73206e6f74206f776e00000000000000000000000000000000000000000000006064820152608401610723565b6001600160a01b0382166111f95760405162461bcd60e51b8152602060048201526024808201527f4552433732313a207472616e7366657220746f20746865207a65726f2061646460448201527f72657373000000000000000000000000000000000000000000000000000000006064820152608401610723565b611204600082610f70565b6001600160a01b038316600090815260036020526040812080546001929061122d9084906129ea565b90915550506001600160a01b038216600090815260036020526040812080546001929061125b9084906128c8565b9091555050600081815260026020526040808220805473ffffffffffffffffffffffffffffffffffffffff19166001600160a01b0386811691821790925591518493918716917fddf252ad1be2c89b69c2b068fc378daa952ba7f163c4a11628f55a4df523b3ef91a4505050565b60008281526006602090815260408083206001600160a01b038516845290915290205460ff16610a3d57611307816001600160a01b031660146118e8565b6113128360206118e8565b604051602001611323929190612a01565b60408051601f198184030181529082905262461bcd60e51b8252610723916004016124f9565b60008281526006602090815260408083206001600160a01b038516845290915290205460ff16610a3d5760008281526006602090815260408083206001600160a01b03851684529091529020805460ff191660011790556113a73390565b6001600160a01b0316816001600160a01b0316837f2f8788117e7eff1d82e926ec794901d17c78024a50270940304540a733656f0d60405160405180910390a45050565b60008281526006602090815260408083206001600160a01b038516845290915290205460ff1615610a3d5760008281526006602090815260408083206001600160a01b0385168085529252808320805460ff1916905551339285917ff6391f5c32d9c69d2a47ea670b442974b53935d1edc7fd64eb21e047a839171b9190a45050565b610a3d828260405180602001604052806000815250611b11565b816001600160a01b0316836001600160a01b031614156114ea5760405162461bcd60e51b815260206004820152601960248201527f4552433732313a20617070726f766520746f2063616c6c6572000000000000006044820152606401610723565b6001600160a01b03838116600081815260056020908152604080832094871680845294825291829020805460ff191686151590811790915591519182527f17307eab39ab6107e8899845ad3d59bd9653f200f220920489ca2b5937696c31910160405180910390a3505050565b604080516060808201835260008083526020830152918101919091526000828152600260205260409020546001600160a01b0316156115c95760405180606001604052808381526020016115aa84610ad6565b6001600160a01b031681526020016115c184610d99565b905292915050565b50506040805160608101825260008082526020808301829052835190810184529081529181019190915290565b919050565b6116068484846110ef565b61161284848484611b9a565b610d725760405162461bcd60e51b815260206004820152603260248201527f4552433732313a207472616e7366657220746f206e6f6e20455243373231526560448201527f63656976657220696d706c656d656e74657200000000000000000000000000006064820152608401610723565b6060816116c457505060408051808201909152600181527f3000000000000000000000000000000000000000000000000000000000000000602082015290565b8160005b81156116ee57806116d881612a82565b91506116e79050600a83612ab3565b91506116c8565b60008167ffffffffffffffff811115611709576117096125b5565b6040519080825280601f01601f191660200182016040528015611733576020820181803683370190505b5090505b8415610e16576117486001836129ea565b9150611755600a86612ac7565b6117609060306128c8565b60f81b81838151811061177557611775612adb565b60200101907effffffffffffffffffffffffffffffffffffffffffffffffffffffffffffff1916908160001a9053506117af600a86612ab3565b9450611737565b604080517f53830f36ae1afd5a27cb5c733cbb7d8e37f4180a90f2238fd1fc48909235dac760208201526001600160a01b0384169181019190915260608101829052600090610d929060800160405160208183030381529060405280519060200120611d20565b6000610d927f523a704056dcd17bcf83bed8b68c59416dac1119be77755efe3bde0a64e46e0c6103e78585611d89565b60006001600160e01b031982167f80ac58cd0000000000000000000000000000000000000000000000000000000014806118b057506001600160e01b031982167f5b5e139f00000000000000000000000000000000000000000000000000000000145b8061060557507f01ffc9a7000000000000000000000000000000000000000000000000000000006001600160e01b0319831614610605565b606060006118f7836002612af1565b6119029060026128c8565b67ffffffffffffffff81111561191a5761191a6125b5565b6040519080825280601f01601f191660200182016040528015611944576020820181803683370190505b5090507f30000000000000000000000000000000000000000000000000000000000000008160008151811061197b5761197b612adb565b60200101907effffffffffffffffffffffffffffffffffffffffffffffffffffffffffffff1916908160001a9053507f7800000000000000000000000000000000000000000000000000000000000000816001815181106119de576119de612adb565b60200101907effffffffffffffffffffffffffffffffffffffffffffffffffffffffffffff1916908160001a9053506000611a1a846002612af1565b611a259060016128c8565b90505b6001811115611ac2577f303132333435363738396162636465660000000000000000000000000000000085600f1660108110611a6657611a66612adb565b1a60f81b828281518110611a7c57611a7c612adb565b60200101907effffffffffffffffffffffffffffffffffffffffffffffffffffffffffffff1916908160001a90535060049490941c93611abb81612b10565b9050611a28565b508315610d925760405162461bcd60e51b815260206004820181905260248201527f537472696e67733a20686578206c656e67746820696e73756666696369656e746044820152606401610723565b611b1b8383611dad565b611b286000848484611b9a565b6108755760405162461bcd60e51b815260206004820152603260248201527f4552433732313a207472616e7366657220746f206e6f6e20455243373231526560448201527f63656976657220696d706c656d656e74657200000000000000000000000000006064820152608401610723565b60006001600160a01b0384163b15611d15576040517f150b7a020000000000000000000000000000000000000000000000000000000081526001600160a01b0385169063150b7a0290611bf7903390899088908890600401612b27565b6020604051808303816000875af1925050508015611c32575060408051601f3d908101601f19168201909252611c2f91810190612b63565b60015b611ce2573d808015611c60576040519150601f19603f3d011682016040523d82523d6000602084013e611c65565b606091505b508051611cda5760405162461bcd60e51b815260206004820152603260248201527f4552433732313a207472616e7366657220746f206e6f6e20455243373231526560448201527f63656976657220696d706c656d656e74657200000000000000000000000000006064820152608401610723565b805181602001fd5b6001600160e01b0319167f150b7a0200000000000000000000000000000000000000000000000000000000149050610e16565b506001949350505050565b6000610605611d2d611efc565b836040517f19010000000000000000000000000000000000000000000000000000000000006020820152602281018390526042810182905260009060620160405160208183030381529060405280519060200120905092915050565b6000806000611d988585612023565b91509150611da581612093565b509392505050565b6001600160a01b038216611e035760405162461bcd60e51b815260206004820181905260248201527f4552433732313a206d696e7420746f20746865207a65726f20616464726573736044820152606401610723565b6000818152600260205260409020546001600160a01b031615611e685760405162461bcd60e51b815260206004820152601c60248201527f4552433732313a20746f6b656e20616c7265616479206d696e746564000000006044820152606401610723565b6001600160a01b0382166000908152600360205260408120805460019290611e919084906128c8565b9091555050600081815260026020526040808220805473ffffffffffffffffffffffffffffffffffffffff19166001600160a01b03861690811790915590518392907fddf252ad1be2c89b69c2b068fc378daa952ba7f163c4a11628f55a4df523b3ef908290a45050565b6000306001600160a01b037f000000000000000000000000000000000000000000000000000000000000000016148015611f5557507f000000000000000000000000000000000000000000000000000000000000000046145b15611f7f57507f000000000000000000000000000000000000000000000000000000000000000090565b50604080517f00000000000000000000000000000000000000000000000000000000000000006020808301919091527f0000000000000000000000000000000000000000000000000000000000000000828401527f000000000000000000000000000000000000000000000000000000000000000060608301524660808301523060a0808401919091528351808403909101815260c0909201909252805191012090565b60008082516041141561205a5760208301516040840151606085015160001a61204e87828585612287565b9450945050505061208c565b8251604014156120845760208301516040840151612079868383612374565b93509350505061208c565b506000905060025b9250929050565b60008160048111156120a7576120a7612b80565b14156120b05750565b60018160048111156120c4576120c4612b80565b14156121125760405162461bcd60e51b815260206004820152601860248201527f45434453413a20696e76616c6964207369676e617475726500000000000000006044820152606401610723565b600281600481111561212657612126612b80565b14156121745760405162461bcd60e51b815260206004820152601f60248201527f45434453413a20696e76616c6964207369676e6174757265206c656e677468006044820152606401610723565b600381600481111561218857612188612b80565b14156121fc5760405162461bcd60e51b815260206004820152602260248201527f45434453413a20696e76616c6964207369676e6174757265202773272076616c60448201527f75650000000000000000000000000000000000000000000000000000000000006064820152608401610723565b600481600481111561221057612210612b80565b14156122845760405162461bcd60e51b815260206004820152602260248201527f45434453413a20696e76616c6964207369676e6174757265202776272076616c60448201527f75650000000000000000000000000000000000000000000000000000000000006064820152608401610723565b50565b6000807f7fffffffffffffffffffffffffffffff5d576e7357a4501ddfe92f46681b20a08311156122be575060009050600361236b565b8460ff16601b141580156122d657508460ff16601c14155b156122e7575060009050600461236b565b6040805160008082526020820180845289905260ff881692820192909252606081018690526080810185905260019060a0016020604051602081039080840390855afa15801561233b573d6000803e3d6000fd5b5050604051601f1901519150506001600160a01b0381166123645760006001925092505061236b565b9150600090505b94509492505050565b6000807f7fffffffffffffffffffffffffffffffffffffffffffffffffffffffffffffff831660ff84901c601b016123ae87828885612287565b935093505050935093915050565b8280546123c890612877565b90600052602060002090601f0160209004810192826123ea5760008555612430565b82601f1061240357805160ff1916838001178555612430565b82800160010185558215612430579182015b82811115612430578251825591602001919060010190612415565b5061243c929150612440565b5090565b5b8082111561243c5760008155600101612441565b60006020828403121561246757600080fd5b5035919050565b6001600160e01b03198116811461228457600080fd5b60006020828403121561249657600080fd5b8135610d928161246e565b60005b838110156124bc5781810151838201526020016124a4565b83811115610d725750506000910152565b600081518084526124e58160208601602086016124a1565b601f01601f19169290920160200192915050565b602081526000610d9260208301846124cd565b80356001600160a01b03811681146115f657600080fd5b6000806040838503121561253657600080fd5b61253f8361250c565b946020939093013593505050565b60008060006060848603121561256257600080fd5b61256b8461250c565b92506125796020850161250c565b9150604084013590509250925092565b6000806040838503121561259c57600080fd5b823591506125ac6020840161250c565b90509250929050565b634e487b7160e01b600052604160045260246000fd5b600067ffffffffffffffff808411156125e6576125e66125b5565b604051601f8501601f19908116603f0116810190828211818310171561260e5761260e6125b5565b8160405280935085815286868601111561262757600080fd5b858560208301376000602087830101525050509392505050565b60006020828403121561265357600080fd5b813567ffffffffffffffff81111561266a57600080fd5b8201601f8101841361267b57600080fd5b610e16848235602084016125cb565b60006020828403121561269c57600080fd5b610d928261250c565b600080604083850312156126b857600080fd5b6126c18361250c565b9150602083013580151581146126d657600080fd5b809150509250929050565b60208152815160208201526001600160a01b03602083015116604082015260006040830151606080840152610e1660808401826124cd565b6000806000806080858703121561272f57600080fd5b6127388561250c565b93506127466020860161250c565b925060408501359150606085013567ffffffffffffffff81111561276957600080fd5b8501601f8101871361277a57600080fd5b612789878235602084016125cb565b91505092959194509250565b803561ffff811681146115f657600080fd5b600080604083850312156127ba57600080fd5b6127c383612795565b91506125ac60208401612795565b6000806000604084860312156127e657600080fd5b83359250602084013567ffffffffffffffff8082111561280557600080fd5b818601915086601f83011261281957600080fd5b81358181111561282857600080fd5b87602082850101111561283a57600080fd5b6020830194508093505050509250925092565b6000806040838503121561286057600080fd5b6128698361250c565b91506125ac6020840161250c565b600181811c9082168061288b57607f821691505b602082108114156128ac57634e487b7160e01b600052602260045260246000fd5b50919050565b634e487b7160e01b600052601160045260246000fd5b600082198211156128db576128db6128b2565b500190565b8054600090600181811c90808316806128fa57607f831692505b602080841082141561291c57634e487b7160e01b600052602260045260246000fd5b81801561293057600181146129415761296e565b60ff1986168952848901965061296e565b60008881526020902060005b868110156129665781548b82015290850190830161294d565b505084890196505b50505050505092915050565b600061298682876128e0565b8551612996818360208a016124a1565b7f7800000000000000000000000000000000000000000000000000000000000000910190815284516129cf8160018401602089016124a1565b6129de600182840101866128e0565b98975050505050505050565b6000828210156129fc576129fc6128b2565b500390565b7f416363657373436f6e74726f6c3a206163636f756e7420000000000000000000815260008351612a398160178501602088016124a1565b7f206973206d697373696e6720726f6c65200000000000000000000000000000006017918401918201528351612a768160288401602088016124a1565b01602801949350505050565b6000600019821415612a9657612a966128b2565b5060010190565b634e487b7160e01b600052601260045260246000fd5b600082612ac257612ac2612a9d565b500490565b600082612ad657612ad6612a9d565b500690565b634e487b7160e01b600052603260045260246000fd5b6000816000190483118215151615612b0b57612b0b6128b2565b500290565b600081612b1f57612b1f6128b2565b506000190190565b60006001600160a01b03808716835280861660208401525083604083015260806060830152612b5960808301846124cd565b9695505050505050565b600060208284031215612b7557600080fd5b8151610d928161246e565b634e487b7160e01b600052602160045260246000fdfea2646970667358221220044aae2ed8d26f1262cbf92a5b137cdee1486e01c9bdc9648a34ede135e8bbb864736f6c634300080a0033",
  "devdoc": {
    "kind": "dev",
    "methods": {
      "approve(address,uint256)": {
        "details": "See {IERC721-approve}."
      },
      "balanceOf(address)": {
        "details": "See {IERC721-balanceOf}."
      },
      "constructor": {
        "params": {
          "_name": "NFT name",
          "_newBaseURI": "base URI to use for assets",
          "_newURISuffix": "URI suffix to use for assets",
          "_symbol": "NFT symbol"
        }
      },
      "getApproved(uint256)": {
        "details": "See {IERC721-getApproved}."
      },
      "getRoleAdmin(bytes32)": {
        "details": "Returns the admin role that controls `role`. See {grantRole} and {revokeRole}. To change a role's admin, use {_setRoleAdmin}."
      },
      "grantRole(bytes32,address)": {
        "details": "Grants `role` to `account`. If `account` had not been already granted `role`, emits a {RoleGranted} event. Requirements: - the caller must have ``role``'s admin role."
      },
      "hasRole(bytes32,address)": {
        "details": "Returns `true` if `account` has been granted `role`."
      },
      "isApprovedForAll(address,address)": {
        "details": "See {IERC721-isApprovedForAll}."
      },
      "name()": {
        "details": "See {IERC721Metadata-name}."
      },
      "ownerOf(uint256)": {
        "details": "See {IERC721-ownerOf}."
      },
      "redeem(uint256,bytes)": {
        "params": {
          "_sig": "EIP712 signature to validate",
          "_tokenId": "token ID to mint"
        }
      },
      "redeemFor(address,uint256)": {
        "params": {
          "_to": "Address of the recipient",
          "_tokenId": "token ID to mint"
        }
      },
      "renounceRole(bytes32,address)": {
        "details": "Revokes `role` from the calling account. Roles are often managed via {grantRole} and {revokeRole}: this function's purpose is to provide a mechanism for accounts to lose their privileges if they are compromised (such as when a trusted device is misplaced). If the calling account had been revoked `role`, emits a {RoleRevoked} event. Requirements: - the caller must be `account`."
      },
      "revokeRole(bytes32,address)": {
        "details": "Revokes `role` from `account`. If `account` had been granted `role`, emits a {RoleRevoked} event. Requirements: - the caller must have ``role``'s admin role."
      },
      "safeTransferFrom(address,address,uint256)": {
        "details": "See {IERC721-safeTransferFrom}."
      },
      "safeTransferFrom(address,address,uint256,bytes)": {
        "details": "See {IERC721-safeTransferFrom}."
      },
      "setApprovalForAll(address,bool)": {
        "details": "See {IERC721-setApprovalForAll}."
      },
      "setBaseURI(string)": {
        "params": {
          "_newBaseURI": "new base URI for the token"
        }
      },
      "setURISuffix(string)": {
        "params": {
          "_newURISuffix": "new URI suffix for the token"
        }
      },
      "symbol()": {
        "details": "See {IERC721Metadata-symbol}."
      },
      "tokenData(uint256)": {
        "params": {
          "tokenId": "the token ID"
        },
        "returns": {
          "_0": "token data"
        }
      },
      "tokenURI(uint256)": {
        "details": "See {IERC721Metadata-tokenURI}."
      },
      "transferFrom(address,address,uint256)": {
        "details": "See {IERC721-transferFrom}."
      }
    },
    "version": 1
  },
  "userdoc": {
    "events": {
      "BaseURIUpdated(string)": {
        "notice": "Emitted when the base URI changes"
      },
      "URISuffixUpdated(string)": {
        "notice": "Emitted when the URI suffix changes"
      }
    },
    "kind": "user",
    "methods": {
      "OPERATOR_ROLE()": {
        "notice": "Role with permissions to set metadata and URIs"
      },
      "URISuffix()": {
        "notice": "Suffix for the URI of all NFTs;"
      },
      "baseURI()": {
        "notice": "Base URI for all NFTs"
      },
      "redeem(uint256,bytes)": {
        "notice": "Mints a new NFT"
      },
      "redeemFor(address,uint256)": {
        "notice": "Mints a new NFT on behalf of an accountOnly callable by an approved operator"
      },
      "setBaseURI(string)": {
        "notice": "Updates the base URIOnly callable by an authorized operator"
      },
      "setURISuffix(string)": {
        "notice": "Updates the URI suffixOnly callable by an authorized operator"
      },
      "tokenData(uint256)": {
        "notice": "Returns info for a token based on his ID"
      }
    },
    "notice": "An NFT representing the Subvisual Universe",
    "version": 1
  },
  "storageLayout": {
    "storage": [
      {
        "astId": 407,
        "contract": "contracts/SubvisualUniverseNFT.sol:SubvisualUniverseNFT",
        "label": "_name",
        "offset": 0,
        "slot": "0",
        "type": "t_string_storage"
      },
      {
        "astId": 409,
        "contract": "contracts/SubvisualUniverseNFT.sol:SubvisualUniverseNFT",
        "label": "_symbol",
        "offset": 0,
        "slot": "1",
        "type": "t_string_storage"
      },
      {
        "astId": 413,
        "contract": "contracts/SubvisualUniverseNFT.sol:SubvisualUniverseNFT",
        "label": "_owners",
        "offset": 0,
        "slot": "2",
        "type": "t_mapping(t_uint256,t_address)"
      },
      {
        "astId": 417,
        "contract": "contracts/SubvisualUniverseNFT.sol:SubvisualUniverseNFT",
        "label": "_balances",
        "offset": 0,
        "slot": "3",
        "type": "t_mapping(t_address,t_uint256)"
      },
      {
        "astId": 421,
        "contract": "contracts/SubvisualUniverseNFT.sol:SubvisualUniverseNFT",
        "label": "_tokenApprovals",
        "offset": 0,
        "slot": "4",
        "type": "t_mapping(t_uint256,t_address)"
      },
      {
        "astId": 427,
        "contract": "contracts/SubvisualUniverseNFT.sol:SubvisualUniverseNFT",
        "label": "_operatorApprovals",
        "offset": 0,
        "slot": "5",
        "type": "t_mapping(t_address,t_mapping(t_address,t_bool))"
      },
      {
        "astId": 24,
        "contract": "contracts/SubvisualUniverseNFT.sol:SubvisualUniverseNFT",
        "label": "_roles",
        "offset": 0,
        "slot": "6",
        "type": "t_mapping(t_bytes32,t_struct(RoleData)19_storage)"
      },
      {
        "astId": 2553,
        "contract": "contracts/SubvisualUniverseNFT.sol:SubvisualUniverseNFT",
        "label": "baseURI",
        "offset": 0,
        "slot": "7",
        "type": "t_string_storage"
      },
      {
        "astId": 2556,
        "contract": "contracts/SubvisualUniverseNFT.sol:SubvisualUniverseNFT",
        "label": "URISuffix",
        "offset": 0,
        "slot": "8",
        "type": "t_string_storage"
      },
      {
        "astId": 2558,
        "contract": "contracts/SubvisualUniverseNFT.sol:SubvisualUniverseNFT",
        "label": "width",
        "offset": 0,
        "slot": "9",
        "type": "t_uint16"
      },
      {
        "astId": 2560,
        "contract": "contracts/SubvisualUniverseNFT.sol:SubvisualUniverseNFT",
        "label": "height",
        "offset": 2,
        "slot": "9",
        "type": "t_uint16"
      }
    ],
    "types": {
      "t_address": {
        "encoding": "inplace",
        "label": "address",
        "numberOfBytes": "20"
      },
      "t_bool": {
        "encoding": "inplace",
        "label": "bool",
        "numberOfBytes": "1"
      },
      "t_bytes32": {
        "encoding": "inplace",
        "label": "bytes32",
        "numberOfBytes": "32"
      },
      "t_mapping(t_address,t_bool)": {
        "encoding": "mapping",
        "key": "t_address",
        "label": "mapping(address => bool)",
        "numberOfBytes": "32",
        "value": "t_bool"
      },
      "t_mapping(t_address,t_mapping(t_address,t_bool))": {
        "encoding": "mapping",
        "key": "t_address",
        "label": "mapping(address => mapping(address => bool))",
        "numberOfBytes": "32",
        "value": "t_mapping(t_address,t_bool)"
      },
      "t_mapping(t_address,t_uint256)": {
        "encoding": "mapping",
        "key": "t_address",
        "label": "mapping(address => uint256)",
        "numberOfBytes": "32",
        "value": "t_uint256"
      },
      "t_mapping(t_bytes32,t_struct(RoleData)19_storage)": {
        "encoding": "mapping",
        "key": "t_bytes32",
        "label": "mapping(bytes32 => struct AccessControl.RoleData)",
        "numberOfBytes": "32",
        "value": "t_struct(RoleData)19_storage"
      },
      "t_mapping(t_uint256,t_address)": {
        "encoding": "mapping",
        "key": "t_uint256",
        "label": "mapping(uint256 => address)",
        "numberOfBytes": "32",
        "value": "t_address"
      },
      "t_string_storage": {
        "encoding": "bytes",
        "label": "string",
        "numberOfBytes": "32"
      },
      "t_struct(RoleData)19_storage": {
        "encoding": "inplace",
        "label": "struct AccessControl.RoleData",
        "members": [
          {
            "astId": 16,
            "contract": "contracts/SubvisualUniverseNFT.sol:SubvisualUniverseNFT",
            "label": "members",
            "offset": 0,
            "slot": "0",
            "type": "t_mapping(t_address,t_bool)"
          },
          {
            "astId": 18,
            "contract": "contracts/SubvisualUniverseNFT.sol:SubvisualUniverseNFT",
            "label": "adminRole",
            "offset": 0,
            "slot": "1",
            "type": "t_bytes32"
          }
        ],
        "numberOfBytes": "64"
      },
      "t_uint16": {
        "encoding": "inplace",
        "label": "uint16",
        "numberOfBytes": "2"
      },
      "t_uint256": {
        "encoding": "inplace",
        "label": "uint256",
        "numberOfBytes": "32"
      }
    }
  }
}